:020000040800F2
:10000000F852012011030008311E0008291E0008C3
:100010002D1E000835100008EF2600080000000023
:100020000000000000000000000000005102000875
:10003000491D000800000000AD0200085121000821
:100040002B0300082B0300082B0300082B030008D8
:100050002B0300082B0300082B0300082B030008C8
:100060002B0300082B0300082B0300082B030008B8
:100070002B0300082B0300082B0300082B030008A8
:100080002B0300082B0300082B030008551200085F
:10009000391000082B0300082B0300082B0300086D
:1000A0002B0300082B0300082B0300082B03000878
:1000B0002B0300082B0300082B0300082B03000868
:1000C0002B0300082B0300082B0300082B03000858
:1000D0002B0300082B0300082B030008DD23000876
:1000E0002B0300082B0300082B0300082B03000838
:1000F0002B0300082B0300082B0300082B03000828
:100100002B0300082B0300082B0300082B03000817
:100110002B0300082B0300082B0300082B03000807
:100120002B0300082B0300082B0300082B030008F7
:100130002B0300082B0300082B0300082B030008E7
:100140002B030008711200082B0300082B03000882
:10015000C51800082B030008F51900089D240008A5
:100160002B0300082B0300082B0300082B030008B7
:100170002B0300082B0300082B03000800000000DD
:100180002B0300082B0300082B0300082B03000897
:100190002B0300082B0300082B0300082B03000887
:1001A00000000000000000002B03000800F002F82F
:1001B00000F03EF80AA090E8000C82448344AAF1C3
:1001C0000107DA4501D100F033F8AFF2090EBAE8C1
:1001D0000F0013F0010F18BFFB1A43F0010318477B
:1001E0001C5A00003C5A0000103A24BF78C878C15D
:1001F000FAD8520724BF30C830C144BF04680C602D
:10020000704700000023002400250026103A28BF74
:1002100078C1FBD8520728BF30C148BF0B60704778
:10022000002070471FB505F0D3FC1FBD10B510BDF1
:1002300000F05EFA1146FFF7F5FF02F085FE00F0D0
:100240007CFA03B4FFF7F2FF03BC02F059FA000096
:100250002C4B19680868B0E8F04F80F30988BFF3A9
:100260006F8F4FF0000080F311887047000000008E
:1002700008480068006880F308884FF0000080F3A9
:10028000148862B661B6BFF34F8FBFF36F8F00DF84
:1002900000BF00BF08ED00E0DFF80C00016841F48A
:1002A00070010160704700BF88ED00E0EFF3098046
:1002B000BFF36F8F134B1A681EF0100F08BF20EDAD
:1002C000108A20E9F04F106009B44FF0500080F31D
:1002D0001188BFF34F8FBFF36F8F04F0D1FC4FF045
:1002E000000080F3118809BC19680868B0E8F04F75
:1002F0001EF0100F08BFB0EC108A80F30988BFF31E
:100300006F8F704760000020EFF30580704700009A
:100310000948804709480047FEE7FEE7FEE7FEE799
:10032000FEE7FEE7FEE7FEE7FEE7FEE704480549D5
:10033000054A064B7047000061210008AD01000826
:10034000F83E0120F8520120F84E0120F84E01201D
:10035000704700000FB4044910B503AA029800F0DA
:10036000ADF910BC5DF814FB200000202DE9F05F12
:10037000894604464FF0000ADFF874B1FB44C0F828
:1003800020A02046E1688847002874D0252806D0A0
:10039000D4E901219047206A401C2062F1E7002641
:1003A0005F462046E16888472028054607DB312D57
:1003B00005D2781910F8200C08B10643F1E7B00710
:1003C00001D526F00406C4F81CA00027C4F818A024
:1003D0002A2D09D0284602F08CF938B304EB87089F
:1003E000303DC8F8185019E059F8041B204604EBBA
:1003F00087029161E1688847012F054618D1E069BD
:10040000002820DA26F020061DE0D8F8180000EBBE
:10041000800005EB40003038C8F818002046E1683D
:100420008847054602F065F90028EED1012F0AD071
:100430002E2D08D12046E16888477F1C0546022FF3
:1004400046F02006C4DBA069002803DA404246F0EB
:100450000106A061F00701D026F010066C2D0BD02C
:10046000682D09D04C2D39D06A2D35D0742D35D05A
:100470007A2D33D016E038E0E1682F4620468847D1
:10048000B842054609D16C2F26D04FF48060E16850
:10049000064320468847054604E06C2F1AD04FF4E7
:1004A000807006430DB3A5F14100192802D820350C
:1004B00046F400664A462946204626604E46FFF727
:1004C000AFFE80B101280BD0F61D26F0070000F129
:1004D000080956E74020E4E78020D8E70020D6E767
:1004E00006F104094DE7284652E7206ABDE8F09F6F
:1004F00068580000032A40F2308010F0030C00F02E
:10050000158011F8013BBCF1020F624498BF11F84D
:1005100001CB00F8013B38BF11F8013BA2F1040206
:1005200098BF00F801CB38BF00F8013B11F003037E
:1005300000F02580083AC0F0088051F8043B083AE2
:1005400051F804CBA0E80810F5E7121D5CBF51F884
:10055000043B40F8043BAFF30080D20724BF11F8FE
:10056000013B11F801CB48BF11F8012B24BF00F863
:10057000013B00F801CB48BF00F8012B704710B5D4
:10058000203AC0F00B80B1E81850203AA0E818508B
:10059000B1E81850A0E81850BFF4F5AF5FEA027C4C
:1005A00024BFB1E81850A0E8185044BF18C918C0BB
:1005B000BDE810405FEA827C24BF51F8043B40F85C
:1005C000043B08BF7047D20728BF31F8023B48BF41
:1005D00011F8012B28BF20F8023B48BF00F8012B7F
:1005E000704702F0FF0343EA032242EA024200F0AE
:1005F00002B84FF000020429C0F0128010F0030C82
:1006000000F01B80CCF1040CBCF1020F18BF00F805
:10061000012BA8BF20F8022BA1EB0C0100F00DB8B4
:100620005FEAC17C24BF00F8012B00F8012B48BF12
:1006300000F8012B70474FF0000200B513469446B6
:100640009646203922BFA0E80C50A0E80C50B1F12A
:100650002001BFF4F7AF090728BFA0E80C5048BF3E
:100660000CC05DF804EB890028BF40F8042B08BFDC
:10067000704748BF20F8022B11F0804F18BF00F8D8
:10068000012B7047704770477047704701694A1CDB
:1006900002610878704700B58FB0CDE901310021C3
:1006A000059105497944CDE9031011466846FFF7E5
:1006B0005DFE0FB000BD0000E5FFFFFF074B70B50A
:1006C0000D467B44FFF7E7FF0446284600F008F894
:1006D00010B14FF0FF3070BD204670BD972700006D
:1006E000007B00F08000704700487047983E012072
:1006F0007546FFF7F9FFAE4605006946534620F000
:100700000700854618B020B5FFF710FEBDE8204071
:100710004FF000064FF000074FF000084FF0000BBD
:1007200021F00701AC46ACE8C009ACE8C009ACE870
:10073000C009ACE8C0098D46704710B50446AFF358
:1007400000802046BDE81040FFF77BBD00B587B0B4
:100750000121480601F0C4FB0121880601F0C0FB1D
:1007600000208DF816008DF8170001208DF8180074
:1007700000208DF819008DF81A008DF81B008DF8F7
:1007800012000520ADF8100001208DF813000420A0
:100790008DF8140002208DF8150004A92A4800F0F5
:1007A000F2FE00208DF80A0001208DF80D000020D7
:1007B000ADF808008DF80C00ADF80000ADF80200AF
:1007C000ADF80400ADF806008DF80B00684600F0A7
:1007D000BDFD01208DF8170000208DF818008DF860
:1007E0001A008DF816008DF819008DF81B008DF891
:1007F00012000520ADF8100001208DF81300042030
:100800008DF8140002208DF8150004A90F4800F09F
:10081000BAFE0E208DF80A0001208DF80D00ADF80B
:1008200008008DF80C000020ADF80000ADF80200C3
:10083000ADF80400ADF806008DF80B00684600F036
:1008400085FD07B000BD0000006400400068004066
:1008500000B58FB00121880501F032FB484801F056
:1008600019F900BF464801F0C1F90028FAD14FF04C
:10087000206000904348019043480290402003903C
:100880004FF47A700490002005904FF48060069039
:1008900000200790089009904FF480300A900020C3
:1008A0000B9003200C9000200D900E906946344868
:1008B00001F01CFA0121324801F0E0F830487838A4
:1008C00001F0E8F800BF2E48783801F08FF90028D1
:1008D000F9D14FF47A7004904FF02060009000201E
:1008E00003900B9003200C902848029000200D905C
:1008F00008904FF4806006900020099021480190F4
:1009000000200E90079005904FF480300A906946C1
:100910001B48783801F0EAF901211948783801F0CC
:10092000ADF81748303801F0B5F84FF0006000908E
:10093000174801901748029000200390122004905D
:10094000002005904FF480600690002007900890EA
:100950004FF4807009904FF440300A9000200B90C3
:100960000C900D900E9069460548303801F0BEF9A4
:1009700001210348303801F081F80FB000BD0000BC
:10098000B864024004140140D8060020F0020020A0
:1009900004100140381100201CB50121084601F067
:1009A0008FFA0121022001F08BFA0121082001F0C9
:1009B00087FA0121402001F083FA0121202001F073
:1009C0007FFA0121080201F07BFA0121802001F069
:1009D00077FA01208DF8040000208DF806004FF40E
:1009E000FF70009001208DF8070003208DF80500AE
:1009F0006946C94801F0A9F94FF4FF71C64801F0F2
:100A000011FA8020009002208DF8040000208DF85B
:100A1000060003208DF8050000208DF807006946C8
:100A2000BE4801F092F907221146BC4801F0D5F901
:100A300002208DF8040000208DF806004FF4844059
:100A4000009001208DF8070002208DF8050069460E
:100A5000B14801F07AF908220921AF4801F0BDF947
:100A600008220E21AC4801F0B8F94FF470700090E4
:100A700001208DF8040000208DF8060003208DF879
:100A8000050001208DF807006946A54801F05DF9D1
:100A90004FF48071A24801F0C3F94FF43071A048BF
:100AA00001F0C0F90320009002208DF8040000201E
:100AB0008DF8060003208DF8050001208DF8070051
:100AC0006946984801F041F909220021954801F052
:100AD00084F909220121934801F07FF902208DF861
:100AE000040000208DF806004FF4405000900120D3
:100AF0008DF8070003208DF805006946874801F04E
:100B000024F909220C21854801F067F909220D21F9
:100B1000824801F062F902208DF8040000208DF86F
:100B200006000120009000208DF8070003208DF8BA
:100B3000050069467C4801F008F9022200217A4844
:100B400001F04BF901208DF8040000208DF806001B
:100B50003C20009002208DF8070003208DF805004E
:100B60006946724801F0F1F81421704801F058F913
:100B700028216E4801F056F901208DF8040000206C
:100B80008DF806004FF46040009002208DF80700B9
:100B900000208DF805006946624801F0D6F84FF450
:100BA0006041604801F03CF901208DF8040000200C
:100BB0008DF806004FF4A050009002208DF8070039
:100BC00000208DF805006946584801F0BEF84FF442
:100BD0008061564801F024F94FF48051534801F0E8
:100BE00021F902208DF8040000208DF806004FF452
:100BF0000060009002208DF807008DF8050069461E
:100C00004A4801F0A2F802220B21484801F0E5F819
:100C10004FF40061454801F003F902208DF804000B
:100C200000208DF806004FF48050009002208DF8CF
:100C300007008DF8050069463A4801F086F802225F
:100C40000C21384801F0C9F84FF48051354801F0C3
:100C5000E7F801208DF8040000208DF806000E2032
:100C6000009002208DF8070000208DF805006946ED
:100C70002F4801F06AF80E212D4801F0D1F801202B
:100C80008DF8040000208DF806002020009002203E
:100C90008DF8070000208DF805006946224801F014
:100CA00054F82021204801F0BBF802208DF8040000
:100CB00000208DF806000120009000208DF807002C
:100CC00002208DF805006946194801F03EF801221E
:100CD0000021174801F081F80121154801F0A0F822
:100CE00002208DF8040000208DF8060040200090BE
:100CF00000208DF8070002208DF8050069460A489B
:100D000001F023F803220621074801F066F840218C
:100D1000054801F085F81CBD00180240000402409F
:100D200000140240000C024000200240001C02405F
:100D30000000024008B54FF4407001F0B7F84720BA
:100D40008DF8000001208DF8030009208DF80100C6
:100D500000208DF80200684601F06CF8012240F294
:100D600024412A4801F02FFC46208DF80000012084
:100D70008DF8030009208DF8010000208DF8020095
:100D8000684601F057F801221021214800F090FF39
:100D900044208DF8000001208DF803000B208DF811
:100DA000010000208DF80200684601F043F801229E
:100DB00010211748303800F07BFF14208DF8000018
:100DC00001208DF8030009208DF8010000208DF826
:100DD0000200684601F02EF8012202210D4800F0C1
:100DE000C9FB41208DF8000001208DF803000B2085
:100DF0008DF8010000208DF80200684601F01AF815
:100E000001221021044800F0B5FB08BD0014014088
:100E1000B8640240006400400068004000B589B03A
:100E20000121084601F05CF80121042001F058F886
:100E30000121082001F054F80121022001F060F89E
:100E40000020ADF82000ADF81A0040F2E73007901E
:100E500041F29310ADF8180006A94B4801F07CFA56
:100E60006020ADF804000020ADF810000120ADF8BE
:100E700006000020039001A9434801F009FA00216F
:100E8000414801F057FA01213F4801F09DF9002047
:100E9000ADF82000ADF81A0040F2E730079041F2BB
:100EA0009310ADF8180006A9384801F055FA6020F3
:100EB000ADF804000020ADF810000120ADF80600E8
:100EC0000020039001A9314801F09AF900212F4830
:100ED00001F0D4F901212D4801F076F90020ADF898
:100EE0002000ADF81A0040F2E730079041F293106D
:100EF000ADF8180006A94FF0804001F02DFA6020EF
:100F0000ADF804000020ADF810000120ADF8060097
:100F10000020039001A94FF0804001F071F90821F1
:100F2000C80601F0ABF90121880701F04DF9002056
:100F3000ADF82000ADF81A0040F2E730079042F219
:100F40002730ADF8180006A9114801F005FA702005
:100F5000ADF804000020ADF810000120ADF8060047
:100F60000020039001A90A4801F092F908210848DD
:100F700001F0E0F90121064801F032F901210448AD
:100F800001F022F909B000BD000C0040000800404B
:100F9000000401401FB50121202000F0B1FF012114
:100FA000102000F0ADFF4FF4E13000900020ADF8CC
:100FB0000C000C20ADF80A000020ADF80800ADF8D8
:100FC0000600ADF804006946174801F021FB012234
:100FD0004021154801F0C4FA01228021124801F095
:100FE000BFFA0121104801F0AFFA1048009000202C
:100FF000ADF80400ADF806004FF48060ADF80800CD
:101000000420ADF80A000020ADF80C00694608483D
:1010100001F0FEFA0121064801F096FA0122402172
:10102000034801F09DFA1FBD00140140A086010095
:101030000010014000BFFEE710B5744A002174485B
:1010400000F02BFB71480068A0F2012008287DD237
:10105000DFE800F00413233343576AA16B496D485E
:1010600001F0B6FE6B48B0F9040000EE100AB8EECD
:10107000C00A694880ED020AC6E06449654820302C
:1010800001F0A6FE6348B0F9240000EE100AB8EEA5
:10109000C00A614880ED050AB6E05C495D48403011
:1010A00001F096FE5B48B0F9440000EE100AB8EE7D
:1010B000C00A594880ED080AA6E0544955486030F6
:1010C00001F086FE5348B0F9640000EE100AB8EE55
:1010D000C00A514880ED0B0A96E04C494F4801F098
:1010E00077FE4E48B0F9040000EE100AB8EEC00AD0
:1010F0004B4880ED040A49488068404249490860ED
:1011000082E04249484801F063FE4748B0F90400D4
:1011100000EE100AB8EEC00A444880ED040A4248C6
:101120008068404908616FE03849414801F050FE4D
:101130003F48B0F9040000EE100AB8EEC00A394882
:1011400080ED100A3A488068242800E058E002D177
:10115000002037498860364890ED020AB8EEC00A90
:10116000304880ED090A3248008800EE100AB8EED7
:10117000400A2C4880ED0A0A90ED0A0AD0ED090ACF
:101180009FED2C1A00EE810ADFED2B0A20EE200ADB
:1011900080ED2B0A38E01D49284801F019FE274848
:1011A000B0F9040000EE100AB8EEC00A1D4880ED48
:1011B0004A0A22488068242802D100201F498860FA
:1011C0001E4890ED020AB8EEC00A164880ED430AA8
:1011D0001A48008800EE100AB8EE400A114880ED67
:1011E000440A90ED440AD0ED430A9FED121A00EE36
:1011F000810ADFED110A20EE200A80ED650A03E086
:101200000FA0FFF7A7F800BF00BF10BDD40000205B
:1012100000640040E8000020B40C002068010020B9
:10122000880F0020C00A002088010020F40F002051
:10123000A801002000F8FF450005A03AC8010020E1
:101240004E6F20666565646261636B2073706565CF
:10125000640D0A0010B50121044800F0FBF818B134
:101260000121024800F01EF810BD0000006400409B
:1012700010B586B001AA0121084800F00EFA00243A
:1012800006E00DF10F00005D05490855601CC4B271
:101290009DF80E00A042F4DC06B010BD00680040CE
:1012A000E8010020B1F5007F3AD00FDC202928D0DA
:1012B00006DC01291CD004291DD0082940D11DE0DD
:1012C000402921D0B1F5807F3AD126E0B1F5004F19
:1012D00031D006DCB1F5806F25D0B1F5006F2FD18C
:1012E00024E0B1F5803F12D0B1F5003F28D111E0E4
:1012F000154A826025E00822C26022E01022C26006
:101300001FE0082202611CE01022026119E008229D
:10131000426016E01022426013E00422426010E0B6
:10132000042242600DE0042242600AE00022826151
:101330000422426005E0002282610422426000E053
:1013400000BF00BF704700000101010010B500217F
:10135000837A012202FA03F13D4A126842F0010247
:101360003B4B1A603A4A1C3212688A43384B1C3392
:101370001A60027BCAB9364A0C3212688A43344B6F
:101380000C331A604288C38842EA0343304A403231
:10139000847A42F834300288838842EA03432C4A34
:1013A0004032847A02EBC4025360027B012A19D1D5
:1013B000274A0C3212680A43254B0C331A604288C4
:1013C000038842EA0343224A4032847A42F83430A6
:1013D000C288838842EA03431D4A4032847A02EB82
:1013E000C4025360C27A3AB9194A121D12688A437C
:1013F000174B1B1D1A6006E0154A121D12680A439E
:10140000134B1B1D1A60028932B9114A143212683B
:101410008A430F4B14331A600289012A06D10C4A01
:10142000143212680A430A4B14331A60427B012AB1
:1014300006D1074A1C3212680A43054B1C331A6056
:10144000034A126822F00102014B1A6010BD00002D
:101450000066004070B504460D46002660692840CD
:10146000002871D0B5F5807F5CD010DC082D35D018
:1014700006DC012D20D0022D24D0042D72D127E0CE
:10148000102D31D0202D35D0402D6BD138E0B5F561
:10149000004F60D009DCB5F5007F49D0B5F5806F0D
:1014A0004CD0B5F5006F5DD14FE0B5F5803F2DD044
:1014B000B5F5003F56D12FE0A0682D4900F0F8F9AE
:1014C000064651E0E068032100F0F2F906464BE0E1
:1014D000E068082100F0ECF9064645E0E0681021DC
:1014E00000F0E6F906463FE02069032100F0E0F94C
:1014F000064639E02069082100F0DAF9064633E0B3
:101500002069102100F0D4F906462DE0606808211A
:1015100000F0CEF9064627E06068102100F0C8F917
:10152000064621E0A069012100F0C2F906461BE051
:10153000A069022100F0BCF9064615E0A06904216B
:1015400000F0B6F906460FE00FE0A069702100F048
:10155000AFF9064608E06068042100F0A9F90646E4
:1015600002E0FFE7002600BF00E00026304670BD25
:10157000010101001AB143690B43436102E0436971
:101580008B434361704730B5024600200023146846
:1015900024F002041460146844F00104146000E0B4
:1015A0005B1C546804F001041CB94FF6FF74A3429D
:1015B000F6D1546804F001040CB900206CE08C7979
:1015C000012C04D1146844F08004146003E0146812
:1015D00024F080041460CC79012C04D1146844F008
:1015E0004004146003E0146824F0400414600C7A92
:1015F000012C04D1146844F02004146003E0146842
:1016000024F0200414604C7A012C04D1146844F0B6
:101610001004146003E0146824F0100414608C7A41
:10162000012C04D1146844F00804146003E0146829
:1016300024F008041460CC7A012C04D1146844F01E
:101640000404146003E0146824F0040414608C782B
:10165000A407CD7844EA05640D7944EA05444D7940
:1016600044EA05540D886D1E2C43D461146824F09F
:1016700001041460002300E05B1C546804F00104C2
:101680001CB14FF6FF74A342F6D1546804F0010474
:101690000CB1002000E0012030BD10B500F5D8737A
:1016A00003EB01131B6803F004031372137A53B99D
:1016B00000F5D87303EB01131B6840F2FF7404EAD2
:1016C0005353136009E000F5D87303EB01131B6853
:1016D0006FF0604404EAD303536000F5D87303EB62
:1016E00001131B6803F00203537200F5D87303EB78
:1016F00001135B6803F00F03937200F5D87303EBDB
:1017000001135B681B0AD37400F5D87303EB011354
:101710009B68D37200F5D87303EB01139B681C0A16
:10172000147300F5D87303EB01139B681C0C5473FE
:1017300000F5D87303EB01139B681B0E937300F540
:10174000D87303EB0113DB68D37300F5D87303EB95
:101750000113DB681C0A147400F5D87303EB011342
:10176000DB681C0C547400F5D87303EB0113DB68C1
:101770001B0E937421B9C36843F02003C36003E0D8
:10178000036943F02003036110BD10B50246002039
:10179000936803F08063B3F1806F00D110E0936829
:1017A00003F00063B3F1006F01D1012008E09368FA
:1017B00003F08053B3F1805F01D1022000E00420E8
:1017C000042874D002F5C07303EB00131B6803F008
:1017D000010402F5C07303EB00131C600B7A7BB9A4
:1017E0004B7A0C8843EA445302F5C07404EB0014AE
:1017F0002468234302F5C07404EB0014236010E056
:101800000B7A4C6843EAC4034C7A234302F5C07454
:1018100004EB00142468234302F5C07404EB0014A5
:1018200023608B7A03F00F038B7202F5C07303EB16
:1018300000135B6823F00F0402F5C07303EB001381
:101840005C6002F5C07303EB00135B688C7A234382
:1018500002F5C07404EB001463608B7B1C064B7BA9
:1018600044EA03440B7B44EA0323CC7A234302F586
:10187000C07404EB0014A3608B7C1C064B7C44EA10
:1018800003440B7C44EA0323CC7B234302F5C0745E
:1018900004EB0014E36002F5C07303EB00131B6854
:1018A00043F0010402F5C07303EB00131C6010BD8C
:1018B0000246002002EA01030BB1012000E00020F3
:1018C0007047000010B54649464800F0BFF90028AF
:1018D0007ED04549434800F09DF84149414800F019
:1018E000B3F8424800784149497840EA0120C0F302
:1018F0000A003F49088008460088A0F5806000B2D1
:1019000008803A484078C0103849897840EA411048
:10191000C0F30A003649488008464088A0F5806038
:1019200000B248803148807880113049C97840EA57
:1019300081002E49097940EA8120C0F30A002C4930
:10194000888008468088A0F5806000B2888027489B
:10195000007940102549497940EAC110C0F30A00D6
:101960002349C8800846C088A0F5806000B2C880BE
:101970001E4840790011800808721C484079C0F365
:1019800001104872194880791849C97940EA012044
:1019900000B2174948811548007A1449497A40EA4B
:1019A000012001B2124881811048807A0F49C97A1A
:1019B00040EA012001B20E48C1810C48017B0C486D
:1019C00001740A48417B0A4841740848807B00E062
:1019D00005E00649C97B40EA01200549488210BD5F
:1019E0000088002088640240000800203811002090
:1019F0005211002010B50549054800F005F920B145
:101A00004FF03D51024800F005F810BD008000285D
:101A1000B86402400246094B9A4201D2084801E0EC
:101A20000648103801F000531BB1064B0B40C36051
:101A300002E0044B0B4083607047000010640240DA
:101A4000006002407D0F7D0F0246094B9A4201D291
:101A5000084801E00648103801F000531BB1064B5E
:101A60000B40C36002E0044B0B40836070470000F2
:101A700010640240006002407D0F7D0F21B10268BA
:101A800042F00102026003E0026822F001020260FB
:101A900070470000016821F0010101600021016030
:101AA00041608160C1600161212141614A498842F0
:101AB00004D13D21484A103A91608CE046491831E2
:101AC000884205D14FF47461434A103A916082E034
:101AD00041493031884205D14FF474113E4A103AE1
:101AE000916078E03C494831884205D14FF07461FB
:101AF000394A103A91606EE037496031884204D12A
:101B00003649354A103AD16065E033497831884228
:101B100004D13349304A103AD1605CE02E4990310B
:101B2000884204D12F492C4A103AD16053E02A4907
:101B3000A831884205D14FF03D51274A103AD16073
:101B400049E02949884204D13D21274A083A1160D9
:101B500041E025491831884205D14FF47461224A89
:101B6000083A116037E020493031884205D14FF4FE
:101B700074111D4A083A11602DE01B494831884212
:101B800005D14FF07461184A083A116023E01649F4
:101B90006031884204D11149134A121F11601AE0C2
:101BA00011497831884204D10D490F4A121F116042
:101BB00011E00D499031884204D10A490A4A121FA6
:101BC000116008E00849A831884204D14FF03D5126
:101BD000054A121F11607047106002403D0000204E
:101BE000400F002000003D2010640240014600200C
:101BF0000A6802F001020AB1012000E000207047EB
:101C00000146486880B2704730B503460A46002056
:101C100000240B4DAB4201D20A4901E008491039BA
:101C200002F000550DB14C6800E00C68064D2C40E8
:101C300004EA02050DB1012000E0002030BD0000E3
:101C400010640240006002407D0F7D0F70B50246B7
:101C5000002000240025124EB24201D2114B01E0B7
:101C60000F4B103B104E0E4036B11E2606EAD12413
:101C7000166806EA040502E0566906F0800501F0E0
:101C800000560EB15C6800E01C68084E344004EA5F
:101C9000010616B10DB1012000E0002070BD00006A
:101CA00010640240006002403C0F3C0F7D0F7D0F2E
:101CB00010B501F080034BB122B1436943F08003BA
:101CC000436103E0436923F08003436180290BD023
:101CD0002AB1036801F01E042343036004E0036893
:101CE00001F01E04A343036010BD000010B50022E4
:101CF0000268134B1A40CC680B6823434C6923439A
:101D00008C692343CC6923430C6A23434C6A2343E5
:101D10008C6A23434C6B23438C6B23431A4302602E
:101D2000426922F00702D1E90B3423431A4342618E
:101D30000B6943604B6883608B68C36010BD000013
:101D40003F801CF0416070477047F0B50A460021A3
:101D50000023002400BF3DE0012505FA01F31568CA
:101D600005EA03049C4234D105684F000326BE40B7
:101D7000B543056015794E00B540066835430560EA
:101D80001579012D02D01579022D16D185684F00E5
:101D90000326BE40B543856055794E00B540866840
:101DA00035438560456801268E40B54345604568EA
:101DB00096798E40B6B235434560C5684F0003261C
:101DC000BE40B543C560D5794E00B540C6683543C1
:101DD000C560491C1029BFD3F0BDF0B50023002415
:101DE0004D07ED0E02FA05F3CE1000F1200555F86F
:101DF00026504E07F70E0F26BE40B543CF1000F118
:101E0000200646F82750CE1000F1200555F8265040
:101E100045EA0304CE1000F1200545F82640F0BD48
:101E2000418370470183704700BFFEE700BFFEE7B4
:101E30007047000070B5002100230F22C4781CB346
:101E4000174C246804F4E064C4F5E064C4F307218B
:101E5000C1F10404E3B20A4144789C40E1B28478C1
:101E6000144021430C07210E0E4C0578615504786F
:101E700004F01F050124AC4005786D11AD0005F19B
:101E8000E025C5F8004109E0047804F01F050124AD
:101E9000AC40054D0678761145F8264070BD00002F
:101EA0000CED00E000E400E080E100E002490143C5
:101EB000024A1160704700000000FA050CED00E0D6
:101EC00029B1064A12680243044B1A6004E0034A2F
:101ED00012688243014B1A6070470000303802409C
:101EE00029B1064A12680243044B1A6004E0034A0F
:101EF00012688243014B1A6070470000403802406C
:101F000029B1064A12680243044B1A6004E0034AEE
:101F100012688243014B1A60704700004438024047
:101F2000F0B5002100220024022500260223324FB2
:101F30003F6807F00C0121B1042905D0082937D1E9
:101F400005E02E4F076036E02D4F076033E02A4F43
:101F50003F1F3F68C7F38056274F3F1F3F6807F07A
:101F60003F036EB1264FB7FBF3F7DFF88CC0ACF13F
:101F7000040CDCF800C0CCF3881C07FB0CF40CE06C
:101F80001E4FB7FBF3F7DFF870C0ACF1040CDCF8C0
:101F900000C0CCF3881C07FB0CF4174F3F1F3F68B1
:101FA000C7F301477F1C7D00B4FBF5F7076002E033
:101FB000124F076000BF00BF0F4F3F6807F0F001EE
:101FC0000909104F7A5C0768D74047600A4F3F689D
:101FD00007F4E051890A0B4F7A5C4768D740876065
:101FE000054F3F6807F46041490B064F7A5C47682C
:101FF000D740C760F0BD0000083802400024F4005C
:10200000001BB700260000200CB5002001900090B6
:102010004148006840F480303F49086000BF3E48B6
:10202000006800F4003000900198401C0190009876
:1020300018B90198B0F5A04FF1D13748006800F405
:10204000003010B10120009001E0002000900098C5
:10205000012860D130484030006840F080502E495F
:10206000403108602D48006840F440402B4908602A
:102070002948083000682849083108600846006887
:1020800040F4004008600846006840F4A050086032
:102090002348091F0860081F006840F08070091F6E
:1020A000086000BF1C48006800F000700028F9D0EC
:1020B0001A48006840F480301849086000BF17488B
:1020C000406800F480300028F9D01448006840F4DB
:1020D00000301249086000BF1048406800F400302A
:1020E0000028F9D040F205700E4908600A4808300F
:1020F000006820F0030008490831086008460068BD
:1021000040F00200086000BF03480830006800F09B
:102110000C000828F8D10CBD0038024000700040C7
:102120000C5A4007003C0240042808D14FF0E0213F
:10213000096941F004014FF0E022116107E04FF01E
:10214000E021096921F004014FF0E022116170479C
:1021500010B503F09DF9012801D002F08BFE10BDEF
:1021600010B51548006840F4700013490860134822
:10217000006840F001001149086000200F49083153
:1021800008600E4800680E4908400C4908600D4878
:10219000091D0860081F006820F48020091F0860DE
:1021A000002006490C310860FFF72EFF4FF0006059
:1021B00001498039086010BD88ED00E00038024018
:1021C000FFFFF6FE1030002421B1028842F0010228
:1021D000028004E002884FF6FE731A4002807047C6
:1021E00031B1B0F8442042F40042A0F8442005E0A8
:1021F000B0F84420C2F30E02A0F84420704700005B
:1022000070B5002400220023058C4FF6FE76354081
:102210000584028C8388048B4FF68F752C40B51E85
:102220002C400D882C43751E2A408D892A434D88E9
:102230002A43104DA84202D00F4DA84213D14FF6A9
:10224000F7752A40CD892A434FF6FB752A408D88C1
:102250002A434FF6FF652B404FF6FF552B400D8A62
:102260002B434D8A2B43838004838D68456302840E
:1022700070BD000000000140000401400A4600213A
:10228000018B4FF6F773194011430183704700002B
:1022900070B5002400220023058C4FF6EF76354000
:1022A0000584028C8388048B48F6FF752C404FF61A
:1022B000FF452C400D884FF6FF7606EA05252C4396
:1022C0004FF6DF752A408D8906EA05152A434D88A9
:1022D00006EA05152A43154DA84202D0144DA8421E
:1022E0001DD14FF67F752A40CD894FF6FF7606EA5D
:1022F00005152A434FF6BF752A408D8806EA051555
:102300002A434FF6FF352B404FF2FF752B400D8AC5
:1023100006EA85052B434D8A06EA85052B43838013
:1023200004838D688563028470BD00000000014055
:10233000000401400A460021018B4FF2FF7319404F
:102340004FF6FF7303EA0223194301837047416389
:10235000704781637047000000220288184B984242
:102360000ED0184B98420BD0B0F1804F08D0164BCE
:10237000984205D0154B984202D0154B984204D193
:102380004FF68F731A404B881A43124B984207D06E
:10239000114B984204D04FF6FF431A400B891A4361
:1023A00002804B68C3620B880385054B984202D0BC
:1023B000044B984201D18B7A0386012383827047B4
:1023C00000000140000401400004004000080040FB
:1023D000000C0040001000400014004010B540F216
:1023E00025511D4800F0C5F810B31B4800F07AF9DC
:1023F000C4B21A48008800F40040C8B917480088E1
:1024000000F4804060B10A2C03D0002013490880FA
:1024100020E01248008840F400401049088019E08C
:102420000D2C06D10D48008840F480400B490880EF
:1024300010E00A480088C0F30D0009490C54074811
:102440000088401C0549088008460088C72801DD2F
:102450000020088010BD000000480040240000203B
:102460002802002010B5044600210B48FFF706FBA8
:1024700000BF0948FFF7BAFB0028FAD121460648F9
:10248000FFF760FC4FF03D510348FFF7C3FA01210D
:102490000148FFF7F3FA10BDB864024070B500BF01
:1024A000002440F22441204800F063F8002839D08D
:1024B0001D480088C5B21C48001D0088C5B2002117
:1024C0001A48FFF7DBFA1948FFF79AFB1849098801
:1024D000081A18490880164801881448FFF732FC8A
:1024E00015491248FFF796FA05E01448005D1449B3
:1024F0000855601CC4B20F4801880088401E0D4A70
:1025000010800029F1D12046FFF7ACFF01210748D8
:10251000FFF7B4FA0B48006808B9012000E000207A
:102520000849086070BD000000140140406402408A
:10253000E45B00080400002000003D10F0020020D1
:10254000D80600208402434221B1828942F400521D
:10255000828104E082894DF6FF731A4082817047C0
:102560001AB1838A0B43838202E0838A8B4383827E
:10257000704770B50246002400230025002040F675
:102580006A16B14200D100BFC1F3421501F01F032A
:10259000012606FA03F3012D02D19689334006E0A5
:1025A000022D02D1168A334001E0968A33400C1284
:1025B000012606FA04F41688344013B10CB1012048
:1025C00000E0002070BDF0B5034600240026002581
:1025D000002040F66A17B94200D100BF1846C1F387
:1025E000421401F01F06012707FA06F5012C01D15C
:1025F0000C3004E0022C01D1103000E014301AB18C
:1026000007682F43076002E00768AF430760F0BD2B
:102610002DE9FF4705460E460024A14600BFA0460F
:10262000B08900B100BF2C8A24F44054F0880443E0
:102630002C82AC8941F20C608443B0883189084314
:10264000718908430443AC81AC8A24F44074B08996
:102650000443AC826846FFF763FC2048854202D001
:102660001F48854202D1DDF80C9001E0DDF80890AA
:10267000A88900F4004040B109EBC90000EB091043
:1026800031684900B0FBF1F707E009EBC90000EB46
:10269000091031688900B0FBF1F76420B7FBF0F056
:1026A00004012009642101FB1078A88900F400408E
:1026B00040B1322000EBC800B0FBF1F000F00700A1
:1026C000044308E0322000EB08106421B0FBF1F075
:1026D00000F00F0004432C81BDE8FF87001001408B
:1026E0000014014001468888C0F30800704700BF0D
:1026F000FEE730380A2801D20120704700207047D9
:1027000000BF7047D0ED000AF4EEC00AF1EE10FAF7
:1027100001DD80ED000AD0ED000AB1EE401AF4EEC2
:10272000C10AF1EE10FA03D2F1EE400AC0ED000A40
:102730007047000010B5044694ED010A224880ED70
:10274000030A94ED050A214880ED030A9FED200A53
:1027500084ED2A0A1F4890ED000A84ED640A1E48A1
:1027600090ED000A84ED490A0021174800F028FE88
:102770000021164800F024FE04F19C0104F1300011
:1027800000F01EFE04F5C27104F58C7000F018FE16
:102790000D4890ED0F0ABDEEC00A10EE100A00B20F
:1027A000A0810A4890ED0F0ABDEEC00A10EE100A93
:1027B00001B2A18394ED1B0A84ED080A94ED550A39
:1027C00084ED420A10BD0000880F0020F40F0020A5
:1027D00000007042440000204000002038B504464C
:1027E00000202070002518E04FF4FA5005EBC501D9
:1027F00001EB410204F13401009001EB8200B1EEE3
:102800000C1AF7EE000AB2EE040A41F270730122CC
:10281000032101F067F8681CC5B2042DE4DB38BD64
:102820007CB50446D4ED7E1AB0EE611AD4ED7D1A63
:10283000F0EE610AD4ED7C1AB0EE610A684600F051
:10284000A1FBBDF90000404200EE100AB8EEC00A3C
:1028500084ED100ABDF90200404200EE100AB8EE05
:10286000C00A84ED2B0ABDF9040000EE100AB8EE90
:10287000C00A84ED460ABDF9060000EBC00000EB7B
:102880004000132190FBF1F000EE100AB8EEC00AF0
:1028900084ED610A00250CE005EBC50101EB410266
:1028A00004F1340101EB8200002100F089FD681C75
:1028B000C5B2042DF0DB002516E005EBC50000EBEA
:1028C000400104F1340000EB810090ED0F0ABDEEF1
:1028D000C00A10EE100A01B205EB4502201D00EB04
:1028E00082000181681CC5B2042DE6DB7CBD0000BE
:1028F00010B52DED048B0446207888BB1B49B1F937
:10290000060003F050F841EC190B9FED190B53EC46
:10291000102B03F05FF841EC180B03F013F8C4F828
:10292000F0011249B1F9040003F03DF841EC190B34
:102930009FED0F0B53EC102B03F04CF841EC180BF0
:1029400003F000F8C4F8F4010848B0F9000000EB07
:10295000400000EE100AB8EEC00A84ED7E0A01E0E5
:10296000FFE700BFBDEC048B10BD0000521100203A
:1029700000000000000004401A48FFF72FFF2FE07E
:10298000184800F037F81748FFF7B2FF1548FFF76F
:1029900047FF144DB5F93030B5F92420B5F91810BA
:1029A000B5F90C0000F07AF8002414E004EBC4013F
:1029B00001EB41020B49343101EB82000A4991EDF0
:1029C000001A0A49D1ED000A094991ED000A00F008
:1029D00082FF601CC4B2042CE8DB022001F09EFFE1
:1029E000CEE70000B40C00205C000020580000205E
:1029F00054000020002112E001EB4103021D02EB14
:102A0000830292ED010A01EBC10202EB420300F1E5
:102A1000340202EB830282ED040A4A1CD1B204297B
:102A2000EADB90ED020AD0ED050A30EE200AD0ED87
:102A3000080A30EE200AD0ED0B0A30EE200AF5EE3F
:102A4000000A20EE200A80ED790A90ED020AD0ED0E
:102A5000050A30EE600AD0ED080A30EE600AD0EDCB
:102A60000B0A30EE200AF5EE000A20EE200A80ED77
:102A70007A0A90ED020AD0ED050A30EE200AD0ED78
:102A8000080A30EE600AD0ED0B0A30EE600AF5EE6F
:102A9000000A20EE200A80ED7B0A7047F0B585B071
:102AA00004460D4616461F464FF400700090002065
:102AB0008DF808008DF8090008208DF80A00200A1A
:102AC0008DF80B00E1B28DF80C10290A8DF80D106D
:102AD000E9B28DF80E10310A8DF80F10F1B28DF8B1
:102AE0001010390A8DF81110F9B28DF812106946DC
:102AF0000248FEF74AFE05B0F0BD00000064004049
:102B00001CB500F08BF80020032103464FF48072BF
:102B1000CDE9001031A1374802F08AFC5DE036486B
:102B2000007A012804D0022806D003282DD100E025
:102B30002BE000F0A1F928E02F48407A022821D1AB
:102B400000202E4981F8F0012D4908602B480068CB
:102B500000280DDB29480069002809DB9FED290AC0
:102B6000264880ED010A9FED280A80ED050A0CE059
:102B70009FED260A214880ED010A9FED240A80ED91
:102B8000050A02E000201E49086000BF1A48407A8A
:102B9000012804D0022811D0032812D102E001F04C
:102BA00007FD0EE01A49084600F05EFB00210846CA
:102BB00000F0A8FA00201749086002E000F0DEF8F3
:102BC00000BF00BF1448006808B9012000E00020E1
:102BD000114908600A2001F0A1FEA0E77365745F47
:102BE0006D6F746F725F63757272656E745F74611E
:102BF000736B00008D44000852110020C00A0020B1
:102C00003800002000007A4400007AC40000000070
:102C100018FCFFFF3C0000209402434208B541F23B
:102C20008830B0EE081AF1EE000AB2EE000A830016
:102C30000222032100901A4800F054FE4FF4C8709D
:102C40009FED181ADFED170A9FED170A4FF47A73FC
:102C500002220321009012486C3000F043FE41F242
:102C60008830B0EE081AF1EE000AB2EE000A8300D6
:102C70000222032100900A48E83000F033FE4FF4AE
:102C8000C8709FED081ADFED070A9FED070A4FF4A1
:102C90007A73022203210090044800F023FE08BD4D
:102CA000F00A0020000000000000C842440C002090
:102CB00070B504460420FFF737FA0C480470254627
:102CC0004FF47A7045430120094908804FF0E02015
:102CD000006940F002004FF0E021086108464561BC
:102CE000006940F00100086170BD00001C00002078
:102CF0001E00002070B5044602F0CAFB012810D067
:102D00000B480088844206D309480088B4FBF0F5DC
:102D1000284601F003FE06480088B4FBF0F100FBF2
:102D200011444FF47A7104FB01F000F003F870BD18
:102D30001E00002070B5034600224FF0E0267569A2
:102D40000D4E367803FB06F44FF0E026B16910E033
:102D50004FF0E026B06988420BD0884202D20E1AAA
:102D6000324402E02E1A0E4432440146A24200D3FD
:102D700000E0EDE700BF70BD1C00002010B5124858
:102D8000006840B196280CD0B0F5FA7F0ED0A0F2C2
:102D90008A2088B90FE04FF47A71084600F064FA8F
:102DA0000AE00021084600F05FFA05E007490846FE
:102DB00000F05AFA00E000BF00BF03480068401C62
:102DC0000149086010BD00003C00002018FCFFFF16
:102DD000028842800A7BCB7A42EA03220280028880
:102DE0004388D21AB2F5805F03DD8268521E82608A
:102DF00008E002884388D21A12F5805F02DA8268FE
:102E0000521C8260028800EE102AB8EE400ADFED04
:102E1000120A20EE200A80ED050A0388826803EB7F
:102E20004232C26090ED030AB8EEC00ADFED0A0A32
:102E300020EE200ABDEEC00A80ED040A8B7B4A7B9F
:102E400043EA022212B282800B7CCA7B43EA02224E
:102E500012B2C28070470000A005343D00BF054A91
:102E6000128802F04002002AF9D0C2B2014B1B1DA9
:102E70001A80704700480040114890F8F00101287E
:102E800014D09FED100A0E4880ED010A9FED0E0A46
:102E900080ED050A00681C2803DA094800691C282F
:102EA0000DDB0120064981F8F00108E09FED070ADB
:102EB000034880ED010A9FED050A80ED050A704781
:102EC000C00A002000007AC400007A44000000001C
:102ED0001CB502F0EDFA0020012103460A02CDE9FB
:102EE000001009A10B4802F0A3FA0BE00A480068A1
:102EF00008B9012000E00020074908604FF4FA708B
:102F000001F00CFDF2E700006C6564325F746173E0
:102F10006B0000001D2F0008A002434208B502F01C
:102F2000C7FA00900CE00748006808B9012000E0EB
:102F30000020044908604FF47A71684601F01CFDD6
:102F4000F1E700008C0243421CB501F013FB642042
:102F5000FFF7D0FE0648022100230A02CDE9001047
:102F600004A1074802F064FA01F038FE00BFFEE752
:102F70000000002073746172745F7461736B0000F1
:102F8000E54400080FB500220092019202920392DC
:102F9000DFED572AB0EE622A70EE202A72EE812A07
:102FA000CDED002A70EE602A72EE812ACDED012A65
:102FB00070EE602A72EEC12ACDED022A70EE202A50
:102FC00072EEC12ACDED032A0021DFED492AB0EED1
:102FD000622A36E06A4602EB8102D2ED002AF5EE63
:102FE000C02AF1EE10FA05DD6A4602EB8102D2ED4D
:102FF000002A06E06A4602EB8102D2ED002AF1EED9
:10300000622AF4EEC22AF1EE10FA18DD6A4602EBEB
:103010008102D2ED002AF5EEC02AF1EE10FA05DDAC
:103020006A4602EB8102D2ED002A06E06A4602EB14
:103030008102D2ED002AF1EE622AB0EE622A4A1C29
:10304000D1B20429C6DBDFED2B2AB4EEE22AF1EE81
:1030500010FA2CDDDFED272AC2EE821ADDED002A00
:1030600062EEA12AFDEEE22A12EE902A12B202804E
:10307000DDED012A62EEA12AFDEEE22A12EE902A8F
:1030800012B24280DDED022A62EEA12AFDEEE22AB2
:1030900012EE902A12B28280DDED032A62EEA12A9E
:1030A000FDEEE22A12EE902A12B2C2801FE0DDEDA0
:1030B000002AFDEEE22A12EE902A12B20280DDED25
:1030C000012AFDEEE22A12EE902A12B24280DDEDD4
:1030D000022AFDEEE22A12EE902A12B28280DDED83
:1030E000032AFDEEE22A12EE902A12B2C2800FBD30
:1030F0000000000000401C45B0F900208A4200DAC0
:103100000180704713B5BDF90000002819DDBDF935
:103110000400002815DD01204F49086000204F49B8
:10312000C1F8880201204C490831086000204C4950
:10313000C1F89402BDF900000090BDF904000190AF
:1031400073E0BDF9000000281BDDBDF90400002874
:1031500017DA01204049086000204049C1F8880280
:1031600001203D490831086000203D49C1F8940222
:10317000BDF900000090BDF80400404200B201908B
:1031800053E0BDF9000000281BDABDF90400002857
:1031900017DD01203049086000203049C1F888025D
:1031A00001202D490831086000202D49C1F8940202
:1031B000BDF80000404200B20090BDF9040001904B
:1031C00033E0BDF9000000281DDABDF90400002835
:1031D00019DA00202049086001202049C1F888023E
:1031E00000201D490831086001201D49C1F89402E2
:1031F000BDF80000404200B20090BDF8040040421B
:1032000000B2019011E0BDF8000070B9BDF80400F3
:1032100058B9BDF900104FF08040FFF798F8BDF99C
:1032200004101048FFF795F81CBD4FF4FA7168467A
:10323000FFF762FF4FF4FA7101A8FFF75DFFBDF9D8
:1032400000104FF08040FFF782F8BDF904100548E8
:10325000FFF77FF800BFE7E78402404200004042EA
:10326000000044420004014013B5BDF900000028ED
:1032700017DDBDF90400002813DD01204B4908606B
:1032800000204B49C1F8BC024A4908600120484966
:10329000C1F8B402BDF900000090BDF9040001902E
:1032A0006DE0BDF90000002819DDBDF9040000281B
:1032B00015DA00203D49086001203D49C1F8BC02F3
:1032C0003C49086000203A49C1F8B402BDF9000049
:1032D0000090BDF80400404200B201904FE0BDF9FB
:1032E000000000281ADABDF90400002816DD0120CC
:1032F0002E49086000202E49C1F8BC0201202D494A
:10330000086000202A49C1F8B402BDF8000040421C
:1033100000B20090BDF90400019030E0BDF900005A
:1033200000281BDABDF90400002817DA00201F4925
:10333000086001201E49C1F8BC021E490860002037
:103340001B49C1F8B402BDF80000404200B2009031
:10335000BDF80400404200B2019010E0BDF800004A
:1033600068B9BDF8040050B9BDF900101248FEF765
:10337000F0FFBDF904101148FEF7E9FF1CBD4FF442
:1033800016716846FFF7B8FE4FF4167101A8FFF7F3
:10339000B3FEBDF900100848FEF7DBFFBDF90410CD
:1033A0000648FEF7D4FF00BFE8E70000A8824342CA
:1033B00000804142B8824142000C004000080040B9
:1033C00070B504460D46606D03287DD195ED030A66
:1033D000D5ED040A30EE600A85ED070A95ED000A86
:1033E000D5ED070A20EE200A85ED080A95ED090AB9
:1033F000D5ED010A95ED071A00EE810A85ED090A5F
:1034000095ED070AD5ED060A30EE600AD5ED020A01
:1034100020EE200A85ED0A0AD5ED180AF8EE600ABA
:10342000B0EE600A05F12400FFF76CF995ED080A8B
:10343000D5ED090A30EE200AD5ED0A0A30EE200A51
:1034400085ED0F0AD5ED170AF8EE600AB0EE600AB6
:1034500005F13C00FFF756F995ED070A85ED060AE0
:10346000A06D022801D0A06D40B995ED0F0AD4EDF2
:10347000040A30EE600A84ED070A0AE0A06D012814
:1034800007D194ED030AD4ED040A30EE600A84ED0E
:10349000070A94ED000AD4ED070A20EE200A84ED15
:1034A000080A94ED090AD4ED010A94ED071A00EE1A
:1034B000810A84ED090A94ED070AD4ED060A30EE7C
:1034C000600AD4ED020A00E028E020EE200A84ED34
:1034D0000A0AD4ED180AF8EE600AB0EE600A04F1A8
:1034E0002400FFF70FF994ED080AD4ED090A30EE35
:1034F000200AD4ED0A0A30EE200A84ED0F0AD4ED3A
:10350000170AF8EE600AB0EE600A04F13C00FFF71B
:10351000F9F894ED070A84ED060A82E1606D04284B
:103520007ED195ED030AD5ED040A30EE600A85EDF3
:10353000070A95ED070AD5ED060A30EE600AD5EDCB
:10354000000A20EE200A85ED080A95ED010AD5ED66
:10355000070A20EE200A85ED090A95ED070AD5ED48
:10356000060AB0EE001A01EE600AD5ED050A30EE4B
:10357000200AD5ED020A20EE200A85ED0A0AD5EDD3
:10358000180AF8EE600AB0EE600A05F12400FFF7B1
:10359000B9F895ED080AD5ED090A30EE200AD5ED07
:1035A0000A0A30EE200A85ED100A95ED120AD5EDD3
:1035B000100A30EE200A85ED110AD5ED170AF8EE53
:1035C000600AB0EE600A05F14400FFF79BF895ED44
:1035D000110A85ED120A95ED060A85ED050A95EDAD
:1035E000070A85ED060A95ED110AD4ED040A30EEBE
:1035F000600A84ED070A94ED070AD4ED060A30EE5E
:10360000600AD4ED000A20EE200A84ED080A94ED49
:10361000010AD4ED070A20EE200A84ED090A00E031
:1036200046E094ED070AD4ED060AB0EE001A01EE6A
:10363000600AD4ED050A30EE200AD4ED020A20EE2D
:10364000200A84ED0A0AD4ED180AF8EE600AB0EEFA
:10365000600A04F12400FFF755F894ED080AD4ED50
:10366000090A30EE200AD4ED0A0A30EE200A84ED71
:10367000100A94ED120AD4ED100A30EE200A84EDFF
:10368000110AD4ED170AF8EE600AB0EE600A04F1F0
:103690004400FFF737F894ED110A84ED120A94ED17
:1036A000060A84ED050A94ED070A84ED060AB8E0DF
:1036B000606D05287ED195ED030AD5ED040A30EE44
:1036C000600A85ED070A95ED0B0AD5ED070A95ED21
:1036D0000D1A00EE810A85ED0B0AD5ED180AF8EEF9
:1036E000600AB0EE600A05F12C00FFF70BF895EDCB
:1036F000070AD5ED060A30EE600AD5ED0D0A80EE18
:10370000201A85ED0C1A95ED000AD5ED070A20EE7A
:10371000200A85ED080A95ED010AD5ED0B0A20EE89
:10372000200A85ED090A95ED020AD5ED0C0A20EE76
:10373000200A85ED0A0A95ED080AD5ED090A30EE52
:10374000200AD5ED0A0A30EE200A85ED0E0AD5EDE5
:10375000170AF8EE600AB0EE600A05F13800FEF7CD
:10376000D1FF95ED070A85ED060A95ED0E0AD4ED19
:10377000040A30EE600A84ED070A94ED0B0AD4EDDA
:10378000070A94ED0D1A00EE810A84ED0B0AD4EDC0
:10379000180AF8EE600AB0EE600A04F12C00FEF799
:1037A000B1FF94ED070AD4ED060A30EE600AD4EDBD
:1037B0000D0A00E035E080EE201A84ED0C1A94ED3D
:1037C000000AD4ED070A20EE200A84ED080A94EDE1
:1037D000010AD4ED0B0A20EE200A84ED090A94EDCB
:1037E000020AD4ED0C0A20EE200A84ED0A0A94EDB8
:1037F000080AD4ED090A30EE200AD4ED0A0A30EEA8
:10380000200A84ED0E0AD4ED170AF8EE600AB0EE35
:10381000600A04F13800FEF775FF94ED070A84EDA5
:10382000060A606D03280DD1A06D012802D0A06D9D
:10383000022802D194ED0F0A70BDA06D70B995ED0C
:103840000F0AF9E7606D042802D194ED110AF3E73D
:10385000606D052802D194ED0E0AEDE79FED010A97
:10386000EAE700000000000008B54FF4FA609FEDA1
:103870000F1ADFED0F0AB1EE040A41F2883301227C
:10388000032100900B4800F02DF84FF4FA609FEDF3
:10389000071ADFED070AB1EE040A41F2883301226C
:1038A00003210090044800F01DF808BD000000004E
:1038B000CDCCCC3D880F0020F40F002010B5029C29
:1038C0000466C3654165826580ED000AC0ED010AAA
:1038D00080ED021A10BD80ED000AC0ED010A80EDF6
:1038E000021A70472DE9F0412DED048B82B0044699
:1038F0000D4616461F46B0EE408AF0EE608AB0EEE6
:10390000419ADDF830800C4860660C48A066CDF81E
:103910000080B0EE491AF0EE680AB0EE480A3B4665
:10392000324629462046D4F864C0E04702B0BDECD8
:10393000048BBDE8F0810000BD380008D7380008CE
:103940002DE9F04105460E461C4807681C480068F2
:10395000001D00F07BFE50B91948006890F82C104B
:103960000120884017490968814316480160681C96
:1039700038B936B112480168091D134800F0A4FE99
:103980001AE07C190E4800684460BC4207D20C481B
:103990000168091D0D48006800F07CFE0CE0084835
:1039A0000168091D0A48006800F074FE09480068B3
:1039B000844201D207480460BDE8F0817400002011
:1039C00060000020780000205C12002068000020C9
:1039D000640000209000002010B5044600F080FE36
:1039E00024480068401C234908602348006840B907
:1039F000214804600846006801280DD100F0DEF976
:103A00000AE01E48006838B91B480068C06AE16ACD
:103A1000884201D81848046019480068401C1849B9
:103A2000086008460068206494F82C100120884043
:103A300014490968084313490860E16A01EB8101F0
:103A4000114A02EB8100211D00F03EFE00F072FEE3
:103A50000A48006868B108480068C06AE16A88429C
:103A600007D24FF0805009490860BFF34F8FBFF372
:103A70006F8F10BD70000020600000207C000020CF
:103A80008C00002078000020A811002004ED00E048
:103A900010B500F025FE10480068D0B90F4800F0BE
:103AA000E9FD0F4800F0E6FD0C480E4908600C489F
:103AB0000D49086000220C210A2001F0F5F90649A1
:103AC00008600846006820B108A10348006800F0BB
:103AD000E9FE00F02FFE10BDA400002070120020AF
:103AE000841200209C000020A0000020546D725120
:103AF0000000000010B516E000F0F2FD0C48C068B0
:103B0000C468201D00F0A2FD0A480068401E094953
:103B1000086009480068401E0749086000F00AFE76
:103B2000204600F05FF8044800680028E4D110BD8A
:103B300048120020700000206C00002070B5044680
:103B40000D46206C70B1216CE0680144E160D4E95D
:103B50000210884201D32168E1602846226CE168A6
:103B6000FCF7C8FC70BD2DE9F04104460F46154630
:103B70004FF00008A66B206C48B9206800282CD1B3
:103B8000A06801F03FFD80460020A06025E07DB9DF
:103B90003946226C6068FCF7ADFC216C6068084413
:103BA0006060D4E90101884217D32068606014E0A6
:103BB0003946226CE068FCF79DFC216CE068411AF4
:103BC000E1602168E068884203D2216CA068411A54
:103BD000E160022D01D106B1761E701CA063404643
:103BE000BDE8F08110B50446206B00F0C1FD204611
:103BF00000F0BEFD10BD00000146084A12681268C0
:103C00000AB9012200E000220A600A6822B9034AC8
:103C10001268D268106800E0002070479C00002005
:103C200030B54FF49633174800F007042CB1C01D8F
:103C300020F00700134C041B1B1B0246124C226091
:103C40000024114D6C60D018083820F007000F4C8C
:103C5000206000240D4D2D686C600C4D2D682C608B
:103C60001146441A4C60094C24680C60084D4C689D
:103C70002C60084D4C682C604FF00044064D2C60C1
:103C800030BD000098120020BC000020C4000020BD
:103C9000CC000020C8000020D000002000BFFFF7AB
:103CA00029FF064800680128F9D94FF080500449DF
:103CB0000860BFF34F8FBFF36F8FF0E7A8110020AC
:103CC00004ED00E02DE9F04106460D461746984602
:103CD000069C0DB9246000E02760E663256401219D
:103CE000204601F00FF984F84C80BDE8F0812DE901
:103CF000F05F82460E4690469B460A9F0C9C56B942
:103D000000BF502080F31188BFF34F8FBFF36F8F38
:103D100000BF00BFFEE74FEA8801A522206BFCF739
:103D200060FCA8F10100216B01EB800929F0070973
:103D300009F0070008B9012000E0002050B900BFD9
:103D4000502080F31188BFF34F8FBFF36F8F00BFF8
:103D500000BFFEE7002507E0715D04F13400415526
:103D6000705D00B902E06D1C0A2DF5D300BF002183
:103D70003D200155052F00D30427E762A7640020EA
:103D8000E064201D00F083FC04F1180000F07FFCCB
:103D90002461C7F10500A06164620020206584F8F9
:103DA00054005A465146484600F028FB20600B98C4
:103DB00008B10B980460BDE8F09F000010B5002426
:103DC00007E004EB84010F4A02EB810000F052FC93
:103DD000641C052CF5D30C4800F04CFC0B4800F09B
:103DE00049FC0B4800F046FC0A4800F043FC0A4836
:103DF00000F040FC0448094908600448084908608C
:103E000010BD0000A81100200C120020201200207C
:103E100034120020481200205C12002064000020B0
:103E20006800002010B50146164800E000680368ED
:103E30008B42FBD30246436813448B4204D1436850
:103E40004C682344436001460A464B6813440468A7
:103E5000A34211D10C4C03682468A34208D04B68DC
:103E60000468646823444B6003681B680B6005E0CA
:103E7000054B1B680B6001E003680B60884200D0B3
:103E8000016010BDBC000020C40000202DE9F041FD
:103E900004460D4616461F464FF000086560246133
:103EA000B5420CD8F01BA169884202D34FF001083B
:103EB00011E0211D0948006800F0ECFB0BE0BE4258
:103EC00004D2BD4202D34FF0010804E0211D044892
:103ED000006800F0DFFB4046BDE8F081A000002054
:103EE0009C00002070B5054600F0FAFBA86B08B9ED
:103EF000012400E0002400F01DFC204670BD70B5D8
:103F0000054600F0EDFBA86BE96B884201D1012466
:103F100000E0002400F00EFC204670BDF8B5054618
:103F20000F4616480068C068C468201D00F08EFB6C
:103F3000E06901281DD1A06941192B463A46204667
:103F4000FFF7A4FFA8B1002003462A4601460090CF
:103F5000204601F0B5FC064656B900BF502080F35C
:103F60001188BFF34F8FBFF36F8F00BF00BFFEE715
:103F700000BF2046616A8847F8BD00009C00002011
:103F800070B586B06AE00398002867DB059C60691D
:103F900008B9012000E0002010B9201D00F056FBF8
:103FA00002A800F0BBF8054603980A2854D2DFE8BF
:103FB00000F009050731334F0608323400BF00BF57
:103FC00000BF00BF0498A269811803462A46204614
:103FD000FFF75CFFE8B12046616A8847E069012885
:103FE00017D1002000900498A169421800231946B7
:103FF000204601F065FC064656B900BF502080F30C
:104000001188BFF34F8FBFF36F8F00BF00BFFEE774
:1040100000BF22E000BF20E000BF0498A061A069BB
:1040200008B1012000E0002050B900BF502080F30B
:104030001188BFF34F8FBFF36F8F00BF00BFFEE744
:10404000A06941192B462A462046FFF71FFF04E0CE
:10405000204600F08DFB00E000BF00BF002203A956
:104060000348006801F0EAF800288CD106B070BD62
:10407000A4000020F8B505460C4600F0F9FD68469E
:1040800000F04CF80646009820BB44B9B54206D86B
:1040900001F068FB31462846FFF740FF1CE03CB1C9
:1040A0000E480068006808B9012000E000200446BE
:1040B000A91B22460A48006800F00AFC01F052FBE6
:1040C00050B94FF0805007490860BFF34F8FBFF3DE
:1040D0006F8F01E001F046FBF8BD0000A00000205A
:1040E000A400002004ED00E00A490968096809B944
:1040F000012100E0002121B14FF0FF31064A11609B
:1041000006E004490968C968C868034A4168116043
:1041100070470000640000209000002070B5044645
:1041200001F0C6F9054607480068854204D200F050
:104130000BF80120206001E00020206001480560AC
:10414000284670BDAC0000202DE9F84332E0244839
:104150000068C068056822480068C068C468201DFF
:1041600000F074FA2046616A8847E069012821D18D
:10417000A0694619AE4207D966602461211D18481E
:10418000006800F087FA15E0002003462A46014641
:104190000090204601F094FB074657B900BF50201D
:1041A00080F31188BFF34F8FBFF36F8F00BF00BF45
:1041B000FEE700BF0A480068006808B9012000E077
:1041C00000200028C3D00648D0F8008005480068C9
:1041D000034908600348C0F80080BDE8F883000088
:1041E0009C000020A00000200E480068401C08B978
:1041F000012000E0002050B900BF502080F311885A
:10420000BFF34F8FBFF36F8F00BF00BFFEE700BF4C
:10421000502080F31188BFF34F8FBFF36F8F00BF23
:1042200000BFFEE7B000002008B500BF6846FFF7FA
:10423000E3FC044620460099FFF71CFFFFF7A0FEB1
:10424000F4E770B5044600F04BFA94F9455010E0DD
:10425000606A08B9012000E0002038B904F12400A8
:1042600001F034FA18B100F077FC00E003E0681EBA
:1042700045B2002DECDC00BFFF2084F8450000F0C3
:1042800059FA00F02DFA94F9445010E0206908B969
:10429000012000E0002048B904F1100001F016FAF6
:1042A00008B100F059FC681E45B200E001E0002DA5
:1042B000ECDC00BFFF2084F8440000F03BFA70BD46
:1042C0002DE9F04104464FF0000800F0D1FC4648CB
:1042D000006808B9FFF7A4FC4448006820400028A3
:1042E0006BD1D4B1083404F00700B0B104F007007A
:1042F000C0F10800044404F0070008B9012000E000
:10430000002050B900BF502080F31188BFF34F8FB9
:10431000BFF36F8F00BF00BFFEE7002C4DD03448C5
:104320000068844249D8334E3046056801E02E4685
:104330002D686868A04202D228680028F7D12A4870
:104340000068854239D0306800F10808286830607C
:104350006868001B102819D92F1907F0070008B941
:10436000012000E0002050B900BF502080F31188E8
:10437000BFF34F8FBFF36F8F00BF00BFFEE76868CA
:10438000001B78606C603846FFF74CFD1849686880
:104390000968081A1649086008460068164909683D
:1043A000884203D212480068134908600F496868C0
:1043B0000968084368600020286001F0D3F908F01C
:1043C000070008B9012000E0002050B900BF5020CC
:1043D00080F31188BFF34F8FBFF36F8F00BF00BF13
:1043E000FEE74046BDE8F081C4000020D000002078
:1043F000C8000020BC000020CC000020001F4FF0AF
:1044000080730360001F21F001030360001F054B50
:10441000036014380260001F6FF00203036020384D
:1044200070470000E9410008F0B585B004460D462C
:1044300016461F4640F2FF10009000208DF808003D
:104440008DF8090008208DF80A00200A8DF80B006D
:10445000E1B28DF80C10290A8DF80D10E9B28DF833
:104460000E10310A8DF80F10F1B28DF81010390AC4
:104470008DF81110F9B28DF8121069460248FDF757
:1044800084F905B0F0BD00000064004024E013484A
:10449000FEF750F9114C94ED420ABDEEC00A10EE41
:1044A000104A23B20D4C94ED080ABDEEC00A10EE7E
:1044B000104A22B2094CB4F91C10B4F90C00FFF7F1
:1044C000B3FF0748006808B9012000E00020044954
:1044D00008600A2000F022FAD9E70000C00A002094
:1044E000980243421CB5044600F0FAF8002001216E
:1044F00003468022CDE900100FA1124800F098FF7A
:10450000002002210346CA01CDE900100EA1124885
:1045100000F08EFF0020032103464FF48072CDE9A6
:1045200000100EA1114800F083FF1148006800F050
:104530008DFA00F0FFF81CBD6C6564315F74617327
:104540006B000000D12E0008636F6E74726F6C5F99
:104550007461736B00000000012B000863686173D5
:104560007369735F7461736B000000007929000840
:104570000000002010B5B420FEF79AFBFCF70CFAFF
:10458000FCF708FDFCF764F9FCF7E0F8FCF746FCE3
:10459000FCF7D0FBFFF768F90020034908600349E6
:1045A000C1F8880210BD000090824342008043425F
:1045B00010B521480068B0F5167F1CD004DC50B15E
:1045C000B0F5C87F30D10CE0A0F24C40C8B1B0F5D6
:1045D000967F29D123E04FF47A710846FEF744FE16
:1045E00022E000210846FEF73FFE4FF47A710846AC
:1045F000FEF788FD18E09FED110A114880ED7C0A56
:1046000012E09FED100A0E4880ED7C0A0E49084624
:10461000FEF72AFE00210846FEF774FD04E00021A3
:104620000846FEF721FE00BF00BF03480068401C9B
:104630000149086010BD00003C0000200080BB4420
:10464000B40C00200000000018FCFFFF01460A69BE
:10465000D1E901309860D1E901035860506888427F
:1046600001D188685060002008611068401E106009
:104670001068704700F1080141604FF0FF31816020
:1046800000F10801C1600161002101607047002153
:104690000161704710B502460B685C1C0CB91069CB
:1046A00007E002F1080000E04068446824689C428A
:1046B000FAD944684C604C68A160886041600A6126
:1046C0001468641C146010BD42684A6093688B6073
:1046D000936859609160086103685B1C03607047D0
:1046E00000BF502080F31188BFF34F8FBFF36F8F4F
:1046F00000BF0E480068401C0C490860084600686E
:10470000012812D10A480068C0B208B9012000E0AF
:10471000002050B900BF502080F31188BFF34F8FA5
:10472000BFF36F8F00BF00BFFEE77047B0000020EF
:1047300004ED00E00D48006850B900BF502080F340
:104740001188BFF34F8FBFF36F8F00BF00BFFEE72D
:1047500006480068401E054908600846006820B900
:10476000002080F3118800BF00BF7047B000002018
:1047700070B506463546002E3FD0083D2C461F49F1
:1047800060680968084008B1012000E0002050B9C5
:1047900000BF502080F31188BFF34F8FBFF36F8F9E
:1047A00000BF00BFFEE7206808B9012000E000203C
:1047B00050B900BF502080F31188BFF34F8FBFF373
:1047C0006F8F00BF00BFFEE70C49606809680840B2
:1047D00098B1206888B909496068096888436060B1
:1047E00000F046FA06496068096808440449086010
:1047F0002046FFF717FB00F0B5FF70BDD00000208A
:10480000C800002000204FF0E021086188610648C0
:1048100000684FF47A71B0FBF1F0401E4FF0E021D8
:1048200048610720086170470800002070B5FBF759
:104830006BFD0446102C16D304F1E02090F8F053E1
:1048400015480078854201DB012000E0002050B9C6
:1048500000BF502080F31188BFF34F8FBFF36F8FDD
:1048600000BF00BFFEE70D48006800F4E0600C499F
:104870000968884201D8012000E0002050B900BF3B
:10488000502080F31188BFF34F8FBFF36F8F00BFAD
:1048900000BFFEE770BD0000B40000200CED00E09A
:1048A000B8000020024600200BE0084B53F83030DF
:1048B00033B9064B43F8301003EBC0035A6002E0F3
:1048C000401C0828F1D300BF704700006811002089
:1048D0002DE9F04105460E4617462C46FFF700FF2E
:1048E00094F94400401C10B9002084F8440094F965
:1048F0004500401C10B9002084F84500FFF71AFF5E
:10490000A06B28B93A46314604F1240000F046F97C
:104910002046FFF796FCBDE8F081000070B5044624
:104920000025D4B11248006808B9012000E0002039
:1049300050B900BF502080F31188BFF34F8FBFF3F1
:104940006F8F00BF00BFFEE700F092F90021204604
:10495000FEF7F6FF00F006FF05463DB94FF0805028
:1049600004490860BFF34F8FBFF36F8F70BD000025
:104970009800002004ED00E02DE9F04704460F46C2
:104980004FF0000954B900BF502080F31188BFF3E5
:104990004F8FBFF36F8F00BF00BFFEE70FB1012045
:1049A00000E0002050B900BF502080F31188BFF311
:1049B0004F8FBFF36F8F00BF00BFFEE72048006836
:1049C00008B9012000E0002050B900BF502080F35A
:1049D0001188BFF34F8FBFF36F8F00BF00BFFEE79B
:1049E00000F046F9174806682068C5192068B042EB
:1049F00007D92068A8420BD9B54209D94FF001095F
:104A000006E02068A84201D8B54201D94FF001095B
:104A10002560B9F1000F03D0A81B0021FEF790FF1D
:104A200000F0A0FE8046B8F1000F07D14FF0805093
:104A300005490860BFF34F8FBFF36F8FBDE8F08764
:104A4000980000207400002004ED00E070B50546D9
:104A5000FFF746FE15B93048006800E028460446D6
:104A6000201DFFF7F3FD78B9E06A00EB80002B49C9
:104A700051F8200040B994F82C10012088402849B2
:104A80000968814326480160A06A18B104F1180042
:104A9000FFF7DCFD23480068401C224908601E48DF
:104AA0000068844209D1211D1F48FFF70DFE1F48F1
:104AB0000068401C1D49086009E01D480068401E50
:104AC0001B4908602046FFF78DF8FFF70DFBFFF745
:104AD00031FE18480068E8B10F480068844219D1D7
:104AE0001548006808B9012000E0002050B900BF57
:104AF000502080F31188BFF34F8FBFF36F8F00BF3B
:104B000000BFFEE74FF080500C490860BFF34F8FA5
:104B1000BFF36F8F70BD000060000020A81100205F
:104B2000780000208C000020481200206C0000203B
:104B3000700000207C0000209800002004ED00E0C0
:104B40000349096801600349096841607047000032
:104B5000880000207400002001200149086070478F
:104B60008400002070B504460D4654B900BF5020A3
:104B700080F31188BFF34F8FBFF36F8F00BF00BF6B
:104B8000FEE70548016818312046FFF783FD012143
:104B90002846FEF7D5FE70BD6000002070B50546C2
:104BA0000E46144655B900BF502080F31188BFF35C
:104BB0004F8FBFF36F8F00BF00BFFEE7064801684D
:104BC00018312846FFF780FD0CB14FF0FF36214623
:104BD0003046FEF7B5FE70BD600000201CB51D48D4
:104BE00000210B468222CDE900101BA11C4800F0D9
:104BF0001FFC0446012C02D100F036FE0446012CB5
:104C000015D100BF502080F31188BFF34F8FBFF341
:104C10006F8F00BF4FF0FF3012490860012012492A
:104C2000086000201149086000F070F810E0601C76
:104C300008B1012000E0002050B900BF502080F3EF
:104C40001188BFF34F8FBFF36F8F00BF00BFFEE728
:104C50001CBD00009400002049444C4500000000A9
:104C60009D3C0008900000207C0000207400002083
:104C700002480068401C0149086070479800002005
:104C80001D48006818B101201C49086032E000206E
:104C90001A4908601A480068B0FA80F0C0F11F0194
:104CA00001EB8100174A52F8200008B1012000E012
:104CB000002050B900BF502080F31188BFF34F8F00
:104CC000BFF36F8F00BF00BFFEE701EB81020D4B0A
:104CD00003EB820042685268426000F108024368B8
:104CE000934202D14268526842604268D268064BE1
:104CF0001A6000BF70470000980000208400002068
:104D000078000020A8110020600000201CB5524847
:104D100000685249884201D0012000E0002050B9CB
:104D200000BF502080F31188BFF34F8FBFF36F8F08
:104D300000BF00BFFEE7484800684849491E884256
:104D400001D0012000E0002050B900BF502080F3C6
:104D50001188BFF34F8FBFF36F8F00BF00BFFEE717
:104D60003F49084600780190FF200A461070084627
:104D7000007800909DF8000000F0F0009DF8002001
:104D8000904201D1012000E0002050B900BF502026
:104D900080F31188BFF34F8FBFF36F8F00BF00BF49
:104DA000FEE79DF8000000F050002E4A107007202A
:104DB0002D4A106009E02C480068401E2A4A106005
:104DC0009DF800004006000E00909DF8000000F0E5
:104DD00080008028EFD024480068C0F10700042834
:104DE00001D1012000E0002050B900BF502080F325
:104DF0001188BFF34F8FBFF36F8F00BF00BFFEE777
:104E0000194800680002184A10601046008800F433
:104E1000E0601060124A019810700F48203000685E
:104E200040F470000C49203108600846006840F0EA
:104E300070400860FFF7E6FC00200C490860FBF7B3
:104E40002BFA0B48006840F0404009490860FBF726
:104E50000FFA00201CBD000000ED00E071C20F4100
:104E600000E400E0B4000020B8000020B000002002
:104E700034EF00E010B500BF502080F31188BFF37D
:104E80004F8FBFF36F8F00BF00F018FB18B14FF0CA
:104E900080500449086000BF002080F3118800BFE3
:104EA00010BD000004ED00E02DE9F84305460E4674
:104EB00090460DB1012000E0002050B900BF502005
:104EC00080F31188BFF34F8FBFF36F8F00BF00BF18
:104ED000FEE70EB9002701E005FB06F707F15000D9
:104EE000FFF7EEF904464CB1A14609F150094346DB
:104EF0004A46314628460094FEF7E4FE2046BDE8C7
:104F0000F883000070B505460E462C4654B900BF24
:104F1000502080F31188BFF34F8FBFF36F8F00BF16
:104F200000BFFEE7FFF7DCFBD4E90F12206801FBAE
:104F30000200A0600020A06320686060E06B401E5B
:104F4000226C216800FB0211E160FF2084F844001C
:104F500084F845009EB9206908B9012000E00020CE
:104F6000A8B904F1100000F0B1FB80B14FF08050FF
:104F700009490860BFF34F8FBFF36F8F07E004F15B
:104F80001000FFF777FB04F12400FFF773FBFFF736
:104F9000D1FB012070BD000004ED00E02DE9FF43CE
:104FA00083B0064688461D464FF00009344654B982
:104FB00000BF502080F31188BFF34F8FBFF36F8F76
:104FC00000BF00BFFEE7B8F1000F01D1206C08B9A7
:104FD000012000E0002050B900BF502080F311886C
:104FE000BFF34F8FBFF36F8F00BF00BFFEE7022DEF
:104FF00002D1E06B012801D1012000E0002050B96E
:1050000000BF502080F31188BFF34F8FBFF36F8F25
:1050100000BF00BFFEE700F03BFA08B9059808B9E9
:10502000012000E0002050B900BF502080F311881B
:10503000BFF34F8FBFF36F8F00BF00BFFEE700BF0E
:10504000FFF74EFBA06BE16B884201D3022D28D104
:105050002A4641462046FEF786FD0746606A08B9A3
:10506000012000E0002068B904F1240000F02EFBCC
:1050700088B14FF0805032490860BFF34F8FBFF3C3
:105080006F8F08E03FB14FF080502D490860BFF3AB
:105090004F8FBFF36F8FFFF74DFB012007B0BDE8C7
:1050A000F083059818B9FFF745FB0020F6E7B9F142
:1050B000000F04D101A8FFF743FD4FF00109FFF7EE
:1050C00039FBFFF7D5FDFFF70BFB94F94400401CBB
:1050D00010B9002084F8440094F94500401C10B930
:1050E000002084F84500FFF725FB05A901A800F082
:1050F00059F9F0B92046FEF702FFA0B104F1100003
:105100000599FFF72FFD2046FFF79BF800F02AFBDB
:10511000002895D14FF0805009490860BFF34F8FA8
:10512000BFF36F8F8CE72046FFF78BF800F01AFB78
:1051300086E72046FFF785F800F014FB0020ADE776
:1051400004ED00E02DE9F05F07468A4690461E46D2
:105150003C4654B900BF502080F31188BFF34F8FF5
:10516000BFF36F8F00BF00BFFEE7BAF1000F01D1A0
:10517000206C08B9012000E0002050B900BF502089
:1051800080F31188BFF34F8FBFF36F8F00BF00BF55
:10519000FEE7022E02D1E06B012801D1012000E0E0
:1051A000002050B900BF502080F31188BFF34F8F0B
:1051B000BFF36F8F00BF00BFFEE7FFF737FB00BFF5
:1051C0005021EFF3118081F31188BFF34F8FBFF3AC
:1051D0006F8F00BF0546A06BE16B884201D3022EA2
:1051E00023D194F945B0324651462046FEF7BBFC28
:1051F0000BF1010088B9606A08B9012000E00020C5
:1052000080B904F1240000F061FA58B1B8F1000F40
:1052100008D00120C8F8000004E00BF1010040B202
:1052200084F845004FF0010901E04FF0000900BF8C
:1052300085F3118800BF4846BDE8F09F2DE9F7418E
:1052400083B005460E464FF000082C4654B900BF07
:10525000502080F31188BFF34F8FBFF36F8F00BFD3
:1052600000BFFEE70EB9206C08B9012000E0002065
:1052700050B900BF502080F31188BFF34F8FBFF3A8
:105280006F8F00BF00BFFEE700F002F908B9059874
:1052900008B9012000E0002050B900BF502080F381
:1052A0001188BFF34F8FBFF36F8F00BF00BFFEE7C2
:1052B00000BFFFF715FAA76BF7B131462046FEF79E
:1052C0003DFC781EA063206908B9012000E00020A1
:1052D00060B904F1100000F0F9F938B14FF08050D6
:1052E0002F490860BFF34F8FBFF36F8FFFF722FA8C
:1052F000012006B0BDE8F081059818B9FFF71AFA49
:105300000020F6E7B8F1000F04D101A8FFF718FC60
:105310004FF00108FFF70EFAFFF7AAFCFFF7E0F9DC
:1053200094F94400401C10B9002084F8440094F91A
:105330004500401C10B9002084F84500FFF7FAF939
:1053400005A901A800F02EF8F0B92046FEF7CAFD25
:10535000A0B104F124000599FFF704FC2046FEF7F4
:1053600070FF00F0FFF90028A3D14FF080500C49E6
:105370000860BFF34F8FBFF36F8F9AE72046FEF7A9
:1053800060FF00F0EFF994E72046FEF75AFF00F0C7
:10539000E9F92046FEF7A6FD00288AD00020A8E7FC
:1053A00004ED00E070B505460C4655B900BF50202D
:1053B00080F31188BFF34F8FBFF36F8F00BF00BF23
:1053C000FEE754B900BF502080F31188BFF34F8F20
:1053D000BFF36F8F00BF00BFFEE7FFF781F91248F0
:1053E00002686868131A2068401C08B9002617E094
:1053F0000E4928680968884204D06868904201D83C
:1054000001260DE02068984207D92068C01A206064
:105410002846FFF795FB002602E0002020600126C9
:10542000FFF788F9304670BD740000208800002026
:105430002DE9FF4F85B0804689461746DDE912AB5E
:10544000B800FEF73DFF064656B15820FEF738FF7C
:1054500004460CB1266304E03046FFF789F900E00A
:1054600000247CB10020CDE900ABCDE902403A46F2
:1054700049464046089BFEF73AFC2046FEF7ACFA48
:10548000012501E04FF0FF35284609B0BDE8F08F57
:105490000549096809B9012005E00449096809B905
:1054A000022000E0002070477C00002098000020CF
:1054B0000149086870470000740000202DE9F041A0
:1054C0004FF0000844480068002877D1434800683E
:1054D000451C4248056015BB41480068006808B992
:1054E000012000E0002050B900BF502080F3118857
:1054F000BFF34F8FBFF36F8F00BF00BFFEE7384889
:1055000007683848006836490860364807603648FA
:105510000068401C34490860FEF7E6FD00BF3348D0
:10552000006885423CD300BF2D480068006808B978
:10553000012000E0002020B14FF0FF302B4908602F
:105540002DE027480068C068C4686668B54202D28A
:105550002648066023E0201DFFF778F8A06A18B1FE
:1055600004F11800FFF772F894F82C10012088401D
:105570001F49096808431E490860E16A01EB81017F
:105580001C4A02EB8100211DFFF79EF81A49E06AD0
:105590000968C96A8842C7D34FF00108C4E700BF51
:1055A00015480068C06A00EB8000124951F82000DD
:1055B000012801D94FF0010805E0FFE70F48006816
:1055C000401C0E4908600E48006808B14FF0010801
:1055D0004046BDE8F08100009800002074000020E3
:1055E0006400002068000020880000209000002057
:1055F00078000020A811002060000020800000201A
:105600008400002070B505462C460026002D55D09C
:105610002B480068844201D1012000E0002050B9ED
:1056200000BF502080F31188BFF34F8FBFF36F8FFF
:1056300000BF00BFFEE7E06C50B900BF502080F310
:105640001188BFF34F8FBFF36F8F00BF00BFFEE71E
:10565000E06C401EE064A16CE06A88422ED0E06CF1
:1056600060BB201DFEF7F2FF78B9E06A00EB800016
:10567000144951F8200040B994F82C1001208840BA
:1056800011490968814310480160A06CE062E06A3A
:10569000C0F10500A06194F82C10012088400A494F
:1056A0000968084308490860E16A01EB8101054A7D
:1056B00002EB8100211DFFF707F80126304670BD7F
:1056C00060000020A81100207800002070B5064678
:1056D000F068C46854B900BF502080F31188BFF34C
:1056E0004F8FBFF36F8F00BF00BFFEE704F11800BC
:1056F000FEF7ACFF15480068A8B9201DFEF7A6FF0D
:1057000094F82C1001208840114909680843104979
:105710000860E16A01EB81010E4A02EB8100211D64
:10572000FEF7D2FF04E004F118010B48FEF7CCFFAE
:105730000A49E06A0968C96A884204D9012501203A
:105740000749086000E00025284670BD9800002049
:1057500078000020A81100203412002060000020F2
:105760008400002070B5002400263648006850B937
:1057700000BF502080F31188BFF34F8FBFF36F8FAE
:1057800000BF00BFFEE7FEF7ABFF2E480068401EDB
:105790002C4908600846006800284FD12A48006854
:1057A00000284BD024E02948C068C46804F11800E0
:1057B000FEF74CFF201DFEF749FF94F82C10012046
:1057C000884023490968084321490860E16A01EBE0
:1057D0008101204A02EB8100211DFEF775FF1E4961
:1057E000E06A0968C96A884202D301201B4908603F
:1057F0001648006808B9012000E000200028D2D037
:105800000CB1FEF771FC1648056865B100BFFFF7E3
:1058100055FE10B10120114908606D1E002DF6D112
:1058200000200F4908600D48006838B10126300794
:105830000C490860BFF34F8FBFF36F8FFEF77AFFFD
:10584000304670BD98000020700000203412002007
:1058500078000020A81100206000002084000020B3
:105860008000002004ED00E01CB50024FEF710F9D4
:105870000E48006858B10E48022100234FF482728E
:10588000CDE900100BA10D48FFF7D2FD044654B935
:1058900000BF502080F31188BFF34F8FBFF36F8F8D
:1058A00000BF00BFFEE720461CBD0000A400002092
:1058B000A8000020546D722053766300294200082E
:1058C0002DE9FE4304460D4616461F46DDF82880A6
:1058D0004FF0000954B900BF502080F31188BFF386
:1058E0004F8FBFF36F8F00BF00BFFEE71448006803
:1058F00010B3009501960294062D15DAFFF7C8FD46
:10590000022808D10023424669460D480068FFF787
:1059100045FB814610E000231A46694608480068A6
:10592000FFF73CFB814607E000233A4669460448FE
:105930000068FFF707FC81464846BDE8FE8300008B
:10594000A400002021F00042A2F16052B2F5801FB5
:1059500001F0004328BFD2F17F6C0BD95FEA001C35
:1059600043EAC20242EB507018BF704728BF20F0D4
:1059700001007047B2F5801FBCBF184670474FEA60
:10598000410C1CF5001F02D2084600F026B970B584
:1059900000F0CAF800000089FFF7F6BF4FF00040A2
:1059A000A0F58000704710F0004248BF4042B0FAB6
:1059B00080F310FA03F10AD0C3F11D0303F58063ED
:1059C0004FEA415002EB035202EBD12170474FF0F6
:1059D00000007047DFF848C170B51CEA111E1EBFF9
:1059E0001CEA13159EEA0C0F95EA0C0F00F06F806D
:1059F00081EA030423EA4C134EEAD47E21EA4C11D7
:105A000041F4801143F48013AE44A1FB024CA0FB8F
:105A10000365AEF17F7E361955EB0C05A1FB034CF7
:105A20004CF10003A0FB021C16EB0C06654153F180
:105A30000003094218BF46F0010613F4007F0BD1A2
:105A40004FEA03314FEA0530340341EA155140EA89
:105A500016506FF003020AE04FEAC3214FEAC52057
:105A6000F40241EA555140EA56506FF0020202EB4F
:105A70002E4201EB025585EACE710AD05FEA440C52
:105A800018BF24F0004450F1000041F1000120EA69
:105A9000D47040F2FE7C624500D270BDA84214BFB3
:105AA0004FF080444FF04044002E08BF0024BEF168
:105AB000806FA8BFA1F1C041BDE8704080F2828034
:105AC0004FF0000001F1C04101F0004170479EEA33
:105AD0000C0F0CEA131518BF95EA0C0F06D04FF007
