:020000040800F2
:100000005050012011030008991D0008911D00089F
:10001000951D000835100008572600080000000054
:100020000000000000000000000000005102000875
:10003000B11C000800000000AD020008B920000853
:100040002B0300082B0300082B0300082B030008D8
:100050002B0300082B0300082B0300082B030008C8
:100060002B0300082B0300082B0300082B030008B8
:100070002B0300082B0300082B0300082B030008A8
:100080002B0300082B0300082B030008BD110008F8
:10009000391000082B0300082B0300082B0300086D
:1000A0002B0300082B0300082B0300082B03000878
:1000B0002B0300082B0300082B0300082B03000868
:1000C0002B0300082B0300082B0300082B03000858
:1000D0002B0300082B0300082B030008452300080E
:1000E0002B0300082B0300082B0300082B03000838
:1000F0002B0300082B0300082B0300082B03000828
:100100002B0300082B0300082B0300082B03000817
:100110002B0300082B0300082B0300082B03000807
:100120002B0300082B0300082B0300082B030008F7
:100130002B0300082B0300082B0300082B030008E7
:100140002B030008D91100082B0300082B0300081B
:100150002D1800082B0300085D190008052400086D
:100160002B0300082B0300082B0300082B030008B7
:100170002B0300082B0300082B03000800000000DD
:100180002B0300082B0300082B0300082B03000897
:100190002B0300082B0300082B0300082B03000887
:1001A00000000000000000002B03000800F002F82F
:1001B00000F03EF80AA090E8000C82448344AAF1C3
:1001C0000107DA4501D100F033F8AFF2090EBAE8C1
:1001D0000F0013F0010F18BFFB1A43F0010318477B
:1001E000C4590000E4590000103A24BF78C878C10F
:1001F000FAD8520724BF30C830C144BF04680C602D
:10020000704700000023002400250026103A28BF74
:1002100078C1FBD8520728BF30C148BF0B60704778
:10022000002070471FB505F0A7FC1FBD10B510BD1D
:1002300000F05EFA1146FFF7F5FF02F0B9FD00F09D
:100240007CFA03B4FFF7F2FF03BC02F00DFA0000E2
:100250002C4B19680868B0E8F04F80F30988BFF3A9
:100260006F8F4FF0000080F311887047000000008E
:1002700008480068006880F308884FF0000080F3A9
:10028000148862B661B6BFF34F8FBFF36F8F00DF84
:1002900000BF00BF08ED00E0DFF80C00016841F48A
:1002A00070010160704700BF88ED00E0EFF3098046
:1002B000BFF36F8F134B1A681EF0100F08BF20EDAD
:1002C000108A20E9F04F106009B44FF0500080F31D
:1002D0001188BFF34F8FBFF36F8F04F0A5FC4FF071
:1002E000000080F3118809BC19680868B0E8F04F75
:1002F0001EF0100F08BFB0EC108A80F30988BFF31E
:100300006F8F704740000020EFF3058070470000BA
:100310000948804709480047FEE7FEE7FEE7FEE799
:10032000FEE7FEE7FEE7FEE7FEE7FEE704480549D5
:10033000054A064B70470000C9200008AD010008BF
:10034000503C012050500120504C0120504C0120C5
:10035000704700000FB4044910B503AA029800F0DA
:10036000ADF910BC5DF814FB200000202DE9F05F12
:10037000894604464FF0000ADFF874B1FB44C0F828
:1003800020A02046E1688847002874D0252806D0A0
:10039000D4E901219047206A401C2062F1E7002641
:1003A0005F462046E16888472028054607DB312D57
:1003B00005D2781910F8200C08B10643F1E7B00710
:1003C00001D526F00406C4F81CA00027C4F818A024
:1003D0002A2D09D0284602F040F938B304EB8708EB
:1003E000303DC8F8185019E059F8041B204604EBBA
:1003F00087029161E1688847012F054618D1E069BD
:10040000002820DA26F020061DE0D8F8180000EBBE
:10041000800005EB40003038C8F818002046E1683D
:100420008847054602F019F90028EED1012F0AD0BD
:100430002E2D08D12046E16888477F1C0546022FF3
:1004400046F02006C4DBA069002803DA404246F0EB
:100450000106A061F00701D026F010066C2D0BD02C
:10046000682D09D04C2D39D06A2D35D0742D35D05A
:100470007A2D33D016E038E0E1682F4620468847D1
:10048000B842054609D16C2F26D04FF48060E16850
:10049000064320468847054604E06C2F1AD04FF4E7
:1004A000807006430DB3A5F14100192802D820350C
:1004B00046F400664A462946204626604E46FFF727
:1004C000AFFE80B101280BD0F61D26F0070000F129
:1004D000080956E74020E4E78020D8E70020D6E767
:1004E00006F104094DE7284652E7206ABDE8F09F6F
:1004F00010580000032A40F2308010F0030C00F086
:10050000158011F8013BBCF1020F624498BF11F84D
:1005100001CB00F8013B38BF11F8013BA2F1040206
:1005200098BF00F801CB38BF00F8013B11F003037E
:1005300000F02580083AC0F0088051F8043B083AE2
:1005400051F804CBA0E80810F5E7121D5CBF51F884
:10055000043B40F8043BAFF30080D20724BF11F8FE
:10056000013B11F801CB48BF11F8012B24BF00F863
:10057000013B00F801CB48BF00F8012B704710B5D4
:10058000203AC0F00B80B1E81850203AA0E818508B
:10059000B1E81850A0E81850BFF4F5AF5FEA027C4C
:1005A00024BFB1E81850A0E8185044BF18C918C0BB
:1005B000BDE810405FEA827C24BF51F8043B40F85C
:1005C000043B08BF7047D20728BF31F8023B48BF41
:1005D00011F8012B28BF20F8023B48BF00F8012B7F
:1005E000704702F0FF0343EA032242EA024200F0AE
:1005F00002B84FF000020429C0F0128010F0030C82
:1006000000F01B80CCF1040CBCF1020F18BF00F805
:10061000012BA8BF20F8022BA1EB0C0100F00DB8B4
:100620005FEAC17C24BF00F8012B00F8012B48BF12
:1006300000F8012B70474FF0000200B513469446B6
:100640009646203922BFA0E80C50A0E80C50B1F12A
:100650002001BFF4F7AF090728BFA0E80C5048BF3E
:100660000CC05DF804EB890028BF40F8042B08BFDC
:10067000704748BF20F8022B11F0804F18BF00F8D8
:10068000012B7047704770477047704701694A1CDB
:1006900002610878704700B58FB0CDE901310021C3
:1006A000059105497944CDE9031011466846FFF7E5
:1006B0005DFE0FB000BD0000E5FFFFFF074B70B50A
:1006C0000D467B44FFF7E7FF0446284600F008F894
:1006D00010B14FF0FF3070BD204670BDFF25000007
:1006E000007B00F08000704700487047F03B01201D
:1006F0007546FFF7F9FFAE4605006946534620F000
:100700000700854618B020B5FFF710FEBDE8204071
:100710004FF000064FF000074FF000084FF0000BBD
:1007200021F00701AC46ACE8C009ACE8C009ACE870
:10073000C009ACE8C0098D46704710B50446AFF358
:1007400000802046BDE81040FFF77BBD00B587B0B4
:100750000121480601F078FB0121880601F074FBB5
:1007600000208DF816008DF8170001208DF8180074
:1007700000208DF819008DF81A008DF81B008DF8F7
:1007800012000520ADF8100001208DF813000420A0
:100790008DF8140002208DF8150004A92A4800F0F5
:1007A000A6FE00208DF80A0001208DF80D00002023
:1007B000ADF808008DF80C00ADF80000ADF80200AF
:1007C000ADF80400ADF806008DF80B00684600F0A7
:1007D00071FD01208DF8170000208DF818008DF8AC
:1007E0001A008DF816008DF819008DF81B008DF891
:1007F00012000520ADF8100001208DF81300042030
:100800008DF8140002208DF8150004A90F4800F09F
:100810006EFE0E208DF80A0001208DF80D00ADF857
:1008200008008DF80C000020ADF80000ADF80200C3
:10083000ADF80400ADF806008DF80B00684600F036
:1008400039FD07B000BD00000064004000680040B2
:1008500000B58FB00121880501F0E6FA484801F0A3
:10086000CDF800BF464801F075F90028FAD14FF0E5
:10087000206000904348019043480290402003903C
:100880004FF47A700490002005904FF48060069039
:1008900000200790089009904FF480300A900020C3
:1008A0000B9003200C9000200D900E906946344868
:1008B00001F0D0F90121324801F094F8304878383D
:1008C00001F09CF800BF2E48783801F043F9002869
:1008D000F9D14FF47A7004904FF02060009000201E
:1008E00003900B9003200C902848029000200D905C
:1008F00008904FF4806006900020099021480190F4
:1009000000200E90079005904FF480300A906946C1
:100910001B48783801F09EF901211948783801F018
:1009200061F81748303801F069F84FF00060009026
:10093000174801901748029000200390122004905D
:10094000002005904FF480600690002007900890EA
:100950004FF4807009904FF440300A9000200B90C3
:100960000C900D900E9069460548303801F072F9F0
:1009700001210348303801F035F80FB000BD000008
:10098000B864024004140140B8060020D0020020E0
:1009900004100140900E00201CB50121084601F012
:1009A00043FA0121022001F03FFA0121082001F061
:1009B0003BFA0121402001F037FA0121202001F00B
:1009C00033FA0121080201F02FFA0121802001F001
:1009D0002BFA01208DF8040000208DF806004FF45A
:1009E000FF70009001208DF8070003208DF80500AE
:1009F0006946C94801F05DF94FF4FF71C64801F03E
:100A0000C5F98020009002208DF8040000208DF8A8
:100A1000060003208DF8050000208DF807006946C8
:100A2000BE4801F046F907221146BC4801F089F999
:100A300002208DF8040000208DF806004FF4844059
:100A4000009001208DF8070002208DF8050069460E
:100A5000B14801F02EF908220921AF4801F071F9DF
:100A600008220E21AC4801F06CF94FF47070009030
:100A700001208DF8040000208DF8060003208DF879
:100A8000050001208DF807006946A54801F011F91D
:100A90004FF48071A24801F077F94FF43071A0480B
:100AA00001F074F90320009002208DF8040000206A
:100AB0008DF8060003208DF8050001208DF8070051
:100AC0006946984801F0F5F809220021954801F09F
:100AD00038F909220121934801F033F902208DF8F9
:100AE000040000208DF806004FF4405000900120D3
:100AF0008DF8070003208DF805006946874801F04E
:100B0000D8F809220C21854801F01BF909220D2192
:100B1000824801F016F902208DF8040000208DF8BB
:100B200006000120009000208DF8070003208DF8BA
:100B3000050069467C4801F0BCF8022200217A4891
:100B400001F0FFF801208DF8040000208DF8060068
:100B50003C20009002208DF8070003208DF805004E
:100B60006946724801F0A5F81421704801F00CF9AB
:100B700028216E4801F00AF901208DF804000020B8
:100B80008DF806004FF46040009002208DF80700B9
:100B900000208DF805006946624801F08AF84FF49C
:100BA0006041604801F0F0F801208DF80400002059
:100BB0008DF806004FF4A050009002208DF8070039
:100BC00000208DF805006946584801F072F84FF48E
:100BD0008061564801F0D8F84FF48051534801F035
:100BE000D5F802208DF8040000208DF806004FF49F
:100BF0000060009002208DF807008DF8050069461E
:100C00004A4801F056F802220B21484801F099F8B1
:100C10004FF40061454801F0B7F802208DF8040058
:100C200000208DF806004FF48050009002208DF8CF
:100C300007008DF8050069463A4801F03AF80222AB
:100C40000C21384801F07DF84FF48051354801F00F
:100C50009BF801208DF8040000208DF806000E207E
:100C6000009002208DF8070000208DF805006946ED
:100C70002F4801F01EF80E212D4801F085F80120C3
:100C80008DF8040000208DF806002020009002203E
:100C90008DF8070000208DF805006946224801F014
:100CA00008F82021204801F06FF802208DF8040098
:100CB00000208DF806000120009000208DF807002C
:100CC00002208DF805006946194800F0F2FF012264
:100CD0000021174801F035F80121154801F054F8BA
:100CE00002208DF8040000208DF8060040200090BE
:100CF00000208DF8070002208DF8050069460A489B
:100D000000F0D7FF03220621074801F01AF840211E
:100D1000054801F039F81CBD0018024000040240EB
:100D200000140240000C024000200240001C02405F
:100D30000000024008B54FF4407001F06BF8472006
:100D40008DF8000001208DF8030009208DF80100C6
:100D500000208DF80200684601F020F8012240F2E0
:100D600024412A4801F0E3FB46208DF800000120D1
:100D70008DF8030009208DF8010000208DF8020095
:100D8000684601F00BF801221021214800F044FFD1
:100D900044208DF8000001208DF803000B208DF811
:100DA000010000208DF80200684600F0F7FF0122E4
:100DB00010211748303800F02FFF14208DF8000064
:100DC00001208DF8030009208DF8010000208DF826
:100DD0000200684600F0E2FF012202210D4800F007
:100DE0007DFB41208DF8000001208DF803000B20D1
:100DF0008DF8010000208DF80200684600F0CEFF5B
:100E000001221021044800F069FB08BD00140140D4
:100E1000B8640240006400400068004000B589B03A
:100E20000121084601F010F80121042001F00CF81E
:100E30000121082001F008F80121022001F014F836
:100E40000020ADF82000ADF81A0040F2E73007901E
:100E500041F29310ADF8180006A94B4801F030FAA2
:100E60006020ADF804000020ADF810000120ADF8BE
:100E700006000020039001A9434801F0BDF90021BC
:100E8000414801F00BFA01213F4801F051F90020DF
:100E9000ADF82000ADF81A0040F2E730079041F2BB
:100EA0009310ADF8180006A9384801F009FA60203F
:100EB000ADF804000020ADF810000120ADF80600E8
:100EC0000020039001A9314801F04EF900212F487C
:100ED00001F088F901212D4801F02AF90020ADF830
:100EE0002000ADF81A0040F2E730079041F293106D
:100EF000ADF8180006A94FF0804001F0E1F960203C
:100F0000ADF804000020ADF810000120ADF8060097
:100F10000020039001A94FF0804001F025F908213D
:100F2000C80601F05FF90121880701F001F90020EE
:100F3000ADF82000ADF81A0040F2E730079042F219
:100F40002730ADF8180006A9114801F0B9F9702052
:100F5000ADF804000020ADF810000120ADF8060047
:100F60000020039001A90A4801F046F90821084829
:100F700001F094F90121064801F0E6F80121044846
:100F800001F0D6F809B000BD000C00400008004098
:100F9000000401401FB50121202000F065FF012160
:100FA000102000F061FF4FF4E13000900020ADF818
:100FB0000C000C20ADF80A000020ADF80800ADF8D8
:100FC0000600ADF804006946174801F0D5FA012281
:100FD0004021154801F078FA01228021124801F0E1
:100FE00073FA0121104801F063FA104800900020C4
:100FF000ADF80400ADF806004FF48060ADF80800CD
:101000000420ADF80A000020ADF80C00694608483D
:1010100001F0B2FA0121064801F04AFA012240210A
:10102000034801F051FA1FBD00140140A0860100E1
:101030000010014000BFFEE710B54E4A00214E48A7
:1010400000F0DFFA4B480068A0F2012008287AD2AD
:10105000DFE800F00413233343576A7A45494748D1
:1010600001F0E2FD4548B0F9040000EE100AB8EEC8
:10107000C00A434880ED020A79E03E493F482030EB
:1010800001F0D2FD3D48B0F9240000EE100AB8EEA0
:10109000C00A3B4880ED050A69E0364937484030D0
:1010A00001F0C2FD3548B0F9440000EE100AB8EE78
:1010B000C00A334880ED080A59E02E492F486030B5
:1010C00001F0B2FD2D48B0F9640000EE100AB8EE50
:1010D000C00A2B4880ED0B0A49E02649294801F057
:1010E000A3FD2848B0F9040000EE100AB8EEC00ACB
:1010F000254880ED040A234880684042234908605F
:1011000035E01C49224801F08FFD2148B0F9040068
:1011100000EE100AB8EEC00A1E4880ED040A1C4812
:1011200080681A49086122E012491B4801F07CFDE1
:101130001948B0F9040000EE100AB8EEC00A1748CA
:1011400080ED040A13E00EE00A49154801F06CFD39
:101150001348B0F9040000EE100AB8EEC00A1148B6
:1011600080ED040A03E010A0FFF7F4F800BF00BF11
:1011700010BD0000B400002000640040C800002042
:10118000E40A002048010020B80D0020A00A002039
:1011900068010020240E002088010020E00C0020BF
:1011A000A80100204C0D00204E6F2066656564622A
:1011B00061636B2073706565640D0A0010B50121D1
:1011C000044800F0FBF818B10121024800F01EF8B5
:1011D00010BD00000064004010B586B001AA0121D6
:1011E000084800F00EFA002406E00DF10F00005D43
:1011F00005490855601CC4B29DF80E00A042F4DCFD
:1012000006B010BD00680040C8010020B1F5007FA5
:101210003AD00FDC202928D006DC01291CD0042973
:101220001DD0082940D11DE0402921D0B1F5807F93
:101230003AD126E0B1F5004F31D006DCB1F5806F30
:1012400025D0B1F5006F2FD124E0B1F5803F12D049
:10125000B1F5003F28D111E0154A826025E008224F
:10126000C26022E01022C2601FE0082202611CE07E
:101270001022026119E00822426016E0102242604A
:1012800013E00422426010E0042242600DE00422D8
:1012900042600AE0002282610422426005E00022EE
:1012A00082610422426000E000BF00BF704700007E
:1012B0000101010010B50021837A012202FA03F135
:1012C0003D4A126842F001023B4B1A603A4A1C3216
:1012D00012688A43384B1C331A60027BCAB9364AFB
:1012E0000C3212688A43344B0C331A604288C3882C
:1012F00042EA0343304A4032847A42F8343002886A
:10130000838842EA03432C4A4032847A02EBC402C7
:101310005360027B012A19D1274A0C3212680A4312
:10132000254B0C331A604288038842EA0343224A61
:101330004032847A42F83430C288838842EA0343D8
:101340001D4A4032847A02EBC4025360C27A3AB931
:10135000194A121D12688A43174B1B1D1A6006E0BA
:10136000154A121D12680A43134B1B1D1A6002898D
:1013700032B9114A143212688A430F4B14331A607F
:101380000289012A06D10C4A143212680A430A4B18
:1013900014331A60427B012A06D1074A1C321268B4
:1013A0000A43054B1C331A60034A126822F00102FB
:1013B000014B1A6010BD00000066004070B5044685
:1013C0000D46002660692840002871D0B5F5807F61
:1013D0005CD010DC082D35D006DC012D20D0022D8C
:1013E00024D0042D72D127E0102D31D0202D35D0FE
:1013F000402D6BD138E0B5F5004F60D009DCB5F574
:10140000007F49D0B5F5806F4CD0B5F5006F5DD148
:101410004FE0B5F5803F2DD0B5F5003F56D12FE018
:10142000A0682D4900F0F8F9064651E0E068032174
:1014300000F0F2F906464BE0E068082100F0ECF914
:10144000064645E0E068102100F0E6F906463FE078
:101450002069032100F0E0F9064639E020690821FF
:1014600000F0DAF9064633E02069102100F0D4F9E3
:1014700006462DE06068082100F0CEF9064627E018
:101480006068102100F0C8F9064621E0A06901213A
:1014900000F0C2F906461BE0A069022100F0BCF989
:1014A000064615E0A069042100F0B6F906460FE0F3
:1014B0000FE0A069702100F0AFF9064608E060680F
:1014C000042100F0A9F9064602E0FFE7002600BF6C
:1014D00000E00026304670BD010101001AB14369E9
:1014E0000B43436102E043698B434361704730B56E
:1014F000024600200023146824F0020414601468DB
:1015000044F00104146000E05B1C546804F0010422
:101510001CB94FF6FF74A342F6D1546804F00104DD
:101520000CB900206CE08C79012C04D1146844F0D3
:101530008004146003E0146824F080041460CC7903
:10154000012C04D1146844F04004146003E01468D2
:1015500024F0400414600C7A012C04D1146844F087
:101560002004146003E0146824F0200414604C7A12
:10157000012C04D1146844F01004146003E01468D2
:1015800024F0100414608C7A012C04D1146844F007
:101590000804146003E0146824F008041460CC7A92
:1015A000012C04D1146844F00404146003E01468AE
:1015B00024F0040414608C78A407CD7844EA056410
:1015C0000D7944EA05444D7944EA05540D886D1EB1
:1015D0002C43D461146824F001041460002300E05B
:1015E0005B1C546804F001041CB14FF6FF74A34265
:1015F000F6D1546804F001040CB1002000E0012091
:1016000030BD10B500F5D87303EB01131B6803F070
:1016100004031372137A53B900F5D87303EB011363
:101620001B6840F2FF7404EA5353136009E000F5AD
:10163000D87303EB01131B686FF0604404EAD30313
:10164000536000F5D87303EB01131B6803F002032A
:10165000537200F5D87303EB01135B6803F00F03BB
:10166000937200F5D87303EB01135B681B0AD37404
:1016700000F5D87303EB01139B68D37200F5D873A0
:1016800003EB01139B681C0A147300F5D87303EB7A
:1016900001139B681C0C547300F5D87303EB011302
:1016A0009B681B0E937300F5D87303EB0113DB6883
:1016B000D37300F5D87303EB0113DB681C0A1474B1
:1016C00000F5D87303EB0113DB681C0C547400F5B0
:1016D000D87303EB0113DB681B0E937421B9C36845
:1016E00043F02003C36003E0036943F02003036178
:1016F00010BD10B502460020936803F08063B3F17B
:10170000806F00D110E0936803F00063B3F1006FC5
:1017100001D1012008E0936803F08053B3F1805FAA
:1017200001D1022000E00420042874D002F5C07327
:1017300003EB00131B6803F0010402F5C07303EB15
:1017400000131C600B7A7BB94B7A0C8843EA445334
:1017500002F5C07404EB00142468234302F5C0743E
:1017600004EB0014236010E00B7A4C6843EAC403D6
:101770004C7A234302F5C07404EB0014246823431D
:1017800002F5C07404EB001423608B7A03F00F039E
:101790008B7202F5C07303EB00135B6823F00F0438
:1017A00002F5C07303EB00135C6002F5C07303EB3A
:1017B00000135B688C7A234302F5C07404EB0014B9
:1017C00063608B7B1C064B7B44EA03440B7B44EA3F
:1017D0000323CC7A234302F5C07404EB0014A36006
:1017E0008B7C1C064B7C44EA03440B7C44EA0323B9
:1017F000CC7B234302F5C07404EB0014E36002F5D4
:10180000C07303EB00131B6843F0010402F5C073BF
:1018100003EB00131C6010BD0246002002EA010326
:101820000BB1012000E000207047000010B54649D0
:10183000464800F0BFF900287ED04549434800F0F3
:101840009DF84149414800F0B3F8424800784149C9
:10185000497840EA0120C0F30A003F490880084661
:101860000088A0F5806000B208803A484078C01037
:101870003849897840EA4110C0F30A003649488067
:1018800008464088A0F5806000B2488031488078E2
:1018900080113049C97840EA81002E49097940EA2F
:1018A0008120C0F30A002C49888008468088A0F572
:1018B000806000B288802748007940102549497926
:1018C00040EAC110C0F30A002349C8800846C08816
:1018D000A0F5806000B2C8801E48407900118008E1
:1018E00008721C484079C0F3011048721948807989
:1018F0001849C97940EA012000B2174948811548C2
:10190000007A1449497A40EA012001B212488181E3
:101910001048807A0F49C97A40EA012001B20E4886
:10192000C1810C48017B0C4801740A48417B0A487C
:1019300041740848807B00E005E00649C97B40EA25
:1019400001200549488210BD0088002088640240BB
:1019500000080020900E0020AA0E002010B50549B6
:10196000054800F005F920B14FF03D51024800F064
:1019700005F810BD00800028B86402400246094BFB
:101980009A4201D2084801E00648103801F000539D
:101990001BB1064B0B40C36002E0044B0B4083605D
:1019A0007047000010640240006002407D0F7D0F10
:1019B0000246094B9A4201D2084801E00648103815
:1019C00001F000531BB1064B0B40C36002E0044B17
:1019D0000B408360704700001064024000600240CA
:1019E0007D0F7D0F21B1026842F00102026003E029
:1019F000026822F00102026070470000016821F0D5
:101A0000010101600021016041608160C1600161EC
:101A1000212141614A49884204D13D21484A103A76
:101A200091608CE046491831884205D14FF47461C9
:101A3000434A103A916082E041493031884205D1F1
:101A40004FF474113E4A103A916078E03C494831B5
:101A5000884205D14FF07461394A103A91606EE0C6
:101A600037496031884204D13649354A103AD1604D
:101A700065E033497831884204D13349304A103A1D
:101A8000D1605CE02E499031884204D12F492C4A24
:101A9000103AD16053E02A49A831884205D14FF06D
:101AA0003D51274A103AD16049E02949884204D182
:101AB0003D21274A083A116041E025491831884202
:101AC00005D14FF47461224A083A116037E0204989
:101AD0003031884205D14FF474111D4A083A116023
:101AE0002DE01B494831884205D14FF07461184AF6
:101AF000083A116023E016496031884204D1114947
:101B0000134A121F11601AE011497831884204D13A
:101B10000D490F4A121F116011E00D4990318842A2
:101B200004D10A490A4A121F116008E00849A83185
:101B3000884204D14FF03D51054A121F1160704791
:101B4000106002403D000020400F002000003D20BA
:101B500010640240014600200A6802F001020AB146
:101B6000012000E0002070470146486880B27047BD
:101B700030B503460A46002000240B4DAB4201D28B
:101B80000A4901E00849103902F000550DB14C68CE
:101B900000E00C68064D2C4004EA02050DB101205E
:101BA00000E0002030BD00001064024000600240F0
:101BB0007D0F7D0F70B50246002000240025124ED7
:101BC000B24201D2114B01E00F4B103B104E0E40C0
:101BD00036B11E2606EAD124166806EA040502E09C
:101BE000566906F0800501F000560EB15C6800E011
:101BF0001C68084E344004EA010616B10DB10120FC
:101C000000E0002070BD000010640240006002404F
:101C10003C0F3C0F7D0F7D0F10B501F080034BB1E1
:101C200022B1436943F08003436103E0436923F039
:101C30008003436180290BD02AB1036801F01E04A0
:101C40002343036004E0036801F01E04A343036020
:101C500010BD000010B500220268134B1A40CC687A
:101C60000B6823434C6923438C692343CC6923438A
:101C70000C6A23434C6A23438C6A23434C6B2343F3
:101C80008C6B23431A430260426922F00702D1E9B8
:101C90000B3423431A4342610B6943604B688360F2
:101CA0008B68C36010BD00003F801CF0416070472E
:101CB0007047F0B50A4600210023002400BF3DE034
:101CC000012505FA01F3156805EA03049C4234D1A5
:101CD00005684F000326BE40B543056015794E00E8
:101CE000B5400668354305601579012D02D0157998
:101CF000022D16D185684F000326BE40B54385608E
:101D000055794E00B54086683543856045680126A3
:101D10008E40B5434560456896798E40B6B23543EE
:101D20004560C5684F000326BE40B543C560D57900
:101D30004E00B540C6683543C560491C1029BFD365
:101D4000F0BDF0B5002300244D07ED0E02FA05F3B7
:101D5000CE1000F1200555F826504E07F70E0F263D
:101D6000BE40B543CF1000F1200646F82750CE10F4
:101D700000F1200555F8265045EA0304CE1000F185
:101D8000200545F82640F0BD418370470183704728
:101D900000BFFEE700BFFEE77047000070B50021FE
:101DA00000230F22C4781CB3174C246804F4E064A9
:101DB000C4F5E064C4F30721C1F10404E3B20A41AD
:101DC00044789C40E1B28478144021430C07210EF2
:101DD0000E4C05786155047804F01F050124AC40D1
:101DE00005786D11AD0005F1E025C5F8004109E069
:101DF000047804F01F050124AC40054D06787611E7
:101E000045F8264070BD00000CED00E000E400E065
:101E100080E100E002490143024A1160704700007E
:101E20000000FA050CED00E029B1064A12680243F1
:101E3000044B1A6004E0034A12688243014B1A60A3
:101E4000704700003038024029B1064A1268024348
:101E5000044B1A6004E0034A12688243014B1A6083
:101E6000704700004038024029B1064A1268024318
:101E7000044B1A6004E0034A12688243014B1A6063
:101E80007047000044380240F0B5002100220024D1
:101E9000022500260223324F3F6807F00C0121B1D2
:101EA000042905D0082937D105E02E4F076036E018
:101EB0002D4F076033E02A4F3F1F3F68C7F380561E
:101EC000274F3F1F3F6807F03F036EB1264FB7FB18
:101ED000F3F7DFF88CC0ACF1040CDCF800C0CCF3F5
:101EE000881C07FB0CF40CE01E4FB7FBF3F7DFF880
:101EF00070C0ACF1040CDCF800C0CCF3881C07FB0C
:101F00000CF4174F3F1F3F68C7F301477F1C7D004C
:101F1000B4FBF5F7076002E0124F076000BF00BF97
:101F20000F4F3F6807F0F0010909104F7A5C07680E
:101F3000D74047600A4F3F6807F4E051890A0B4FCA
:101F40007A5C4768D7408760054F3F6807F4604177
:101F5000490B064F7A5C4768D740C760F0BD000068
:101F6000083802400024F400001BB70026000020BF
:101F70000CB50020019000904148006840F480308A
:101F80003F49086000BF3E48006800F40030009000
:101F90000198401C0190009818B90198B0F5A04F25
:101FA000F1D13748006800F4003010B101200090F2
:101FB00001E0002000900098012860D130484030B6
:101FC000006840F080502E49403108602D4800687C
:101FD00040F440402B4908602948083000682849EF
:101FE000083108600846006840F400400860084670
:101FF000006840F4A05008602348091F0860081FCB
:10200000006840F08070091F086000BF1C4800682D
:1020100000F000700028F9D01A48006840F48030C1
:102020001849086000BF1748406800F48030002855
:10203000F9D01448006840F400301249086000BF2D
:102040001048406800F400300028F9D040F20570D4
:102050000E4908600A480830006820F0030008496B
:10206000083108600846006840F00200086000BFC0
:1020700003480830006800F00C000828F8D10CBDB7
:1020800000380240007000400C5A4007003C0240FB
:10209000042808D14FF0E021096941F004014FF014
:1020A000E022116107E04FF0E021096921F004010D
:1020B0004FF0E0221161704710B503F0BDF901281F
:1020C00001D002F0ABFE10BD10B51548006840F419
:1020D0007000134908601348006840F0010011497E
:1020E000086000200F49083108600E4800680E495A
:1020F00008400C4908600D48091D0860081F006869
:1021000020F48020091F0860002006490C31086077
:10211000FFF72EFF4FF0006001498039086010BDC5
:1021200088ED00E000380240FFFFF6FE103000248A
:1021300021B1028842F00102028004E002884FF6D9
:10214000FE731A400280704731B1B0F8442042F467
:102150000042A0F8442005E0B0F84420C2F30E028B
:10216000A0F844207047000070B50024002200232E
:10217000058C4FF6FE7635400584028C8388048BEF
:102180004FF68F752C40B51E2C400D882C43751EC4
:102190002A408D892A434D882A43104DA84202D0F7
:1021A0000F4DA84213D14FF6F7752A40CD892A4327
:1021B0004FF6FB752A408D882A434FF6FF652B406A
:1021C0004FF6FF552B400D8A2B434D8A2B438380BE
:1021D00004838D684563028470BD000000000140E7
:1021E000000401400A460021018B4FF6F7731940A5
:1021F000114301837047000070B5002400220023C2
:10220000058C4FF6EF7635400584028C8388048B6D
:1022100048F6FF752C404FF6FF452C400D884FF6D1
:10222000FF7606EA05252C434FF6DF752A408D8997
:1022300006EA05152A434D8806EA05152A43154D79
:10224000A84202D0144DA8421DD14FF67F752A40F6
:10225000CD894FF6FF7606EA05152A434FF6BF757E
:102260002A408D8806EA05152A434FF6FF352B4094
:102270004FF2FF752B400D8A06EA85052B434D8AE8
:1022800006EA85052B43838004838D688563028479
:1022900070BD000000000140000401400A4600211A
:1022A000018B4FF2FF7319404FF6FF7303EA0223CD
:1022B0001943018370474163704781637047000091
:1022C00000220288184B98420ED0184B98420BD02F
:1022D000B0F1804F08D0164B984205D0154B98426C
:1022E00002D0154B984204D14FF68F731A404B8899
:1022F0001A43124B984207D0114B984204D04FF624
:10230000FF431A400B891A4302804B68C3620B8853
:102310000385054B984202D0044B984201D18B7A39
:1023200003860123838270470000014000040140BE
:102330000004004000080040000C00400010004075
:102340000014004010B540F225511D4800F0C5F8BA
:1023500010B31B4800F07AF9C4B21A48008800F4A0
:102360000040C8B91748008800F4804060B10A2CCA
:1023700003D000201349088020E01248008840F470
:1023800000401049088019E00D2C06D10D48008846
:1023900040F480400B49088010E00A480088C0F3F0
:1023A0000D0009490C5407480088401C0549088065
:1023B00008460088C72801DD0020088010BD000005
:1023C00000480040240000200802002010B5044608
:1023D00000210B48FFF706FB00BF0948FFF7BAFBD7
:1023E0000028FAD121460648FFF760FC4FF03D5126
:1023F0000348FFF7C3FA01210148FFF7F3FA10BDC4
:10240000B864024070B500BF002440F22441204867
:1024100000F063F8002839D01D480088C5B21C4878
:10242000001D0088C5B200211A48FFF7DBFA1948E1
:10243000FFF79AFB18490988081A184908801648B6
:1024400001881448FFF732FC15491248FFF796FA45
:1024500005E01448005D14490855601CC4B20F48DB
:1024600001880088401E0D4A10800029F1D12046C5
:10247000FFF7ACFF01210748FFF7B4FA0B480068EB
:1024800008B9012000E000200849086070BD000084
:1024900000140140406402408C5B000804000020EE
:1024A00000003D10D0020020B80600208402434204
:1024B00021B1828942F40052828104E082894DF682
:1024C000FF731A40828170471AB1838A0B4383825B
:1024D00002E0838A8B438382704770B502460024F2
:1024E00000230025002040F66A16B14200D100BF4B
:1024F000C1F3421501F01F03012606FA03F3012D73
:1025000002D19689334006E0022D02D1168A33406B
:1025100001E0968A33400C12012606FA04F416886C
:10252000344013B10CB1012000E0002070BDF0B5C3
:102530000346002400260025002040F66A17B94211
:1025400000D100BF1846C1F3421401F01F06012755
:1025500007FA06F5012C01D10C3004E0022C01D160
:10256000103000E014301AB107682F43076002E012
:102570000768AF430760F0BD2DE9FF4705460E46EB
:102580000024A14600BFA046B08900B100BF2C8A3C
:1025900024F44054F08804432C82AC8941F20C604E
:1025A0008443B08831890843718908430443AC816E
:1025B000AC8A24F44074B0890443AC826846FFF7C7
:1025C00063FC2048854202D01F48854202D1DDF8D5
:1025D0000C9001E0DDF80890A88900F4004040B1BB
:1025E00009EBC90000EB091031684900B0FBF1F7B5
:1025F00007E009EBC90000EB091031688900B0FB66
:10260000F1F76420B7FBF0F004012009642101FB1D
:102610001078A88900F4004040B1322000EBC800D7
:10262000B0FBF1F000F00700044308E0322000EBBB
:1026300008106421B0FBF1F000F00F0004432C817E
:10264000BDE8FF8700100140001401400146888862
:10265000C0F30800704700BFFEE730380A2801D2F7
:10266000012070470020704700BF7047D0ED000A7E
:10267000F4EEC00AF1EE10FA01DD80ED000AD0EDB3
:10268000000AB1EE401AF4EEC10AF1EE10FA03D2DC
:10269000F1EE400AC0ED000A7047000010B5044694
:1026A00094ED010A234880ED030A94ED050A2248BF
:1026B00080ED030A94ED090A204880ED030A94EDA9
:1026C0000D0A1F4880ED030A00211A4800F02AFE77
:1026D0000021194800F026FE0021184800F022FED3
:1026E0000021174800F01EFE124890ED0F0ABDEEC3
:1026F000C00A10EE100A00B2A0810F4890ED0F0A38
:10270000BDEEC00A10EE100A01B2A1830B4890ED95
:102710000F0ABDEEC00A10EE100A01B2A1850848EA
:1027200090ED0F0ABDEEC00A10EE100A01B2A187AB
:1027300010BD0000B80D0020240E0020E00C002089
:102740004C0D002038B504460020207000251AE00A
:102750004FF4FA5005EBC50101EB410204F13401DD
:10276000009001EB8200DFED091A9FED091AF0EEEF
:10277000080A9FED060A41F288330122032101F085
:102780008DF8681CC5B2042DE2DB38BD00000000E6
:10279000000020427CB50446D4ED7E1AB0EE611AEA
:1027A000D4ED7D1AF0EE610AD4ED7C1AB0EE610A28
:1027B000684600F01BFBBDF90000404200EE100A25
:1027C000B8EEC00A84ED100ABDF90200404200EEE6
:1027D000100AB8EEC00A84ED2B0ABDF9040000EE21
:1027E000100AB8EEC00A84ED460ABDF9060000EEF4
:1027F000100AB8EEC00A84ED610A00250CE005EB72
:10280000C50101EB410204F1340101EB820000211A
:1028100000F088FD681CC5B2042DF0DB002516E031
:1028200005EBC50000EB400104F1340000EB810032
:1028300090ED0F0ABDEEC00A10EE100A01B205EBD2
:102840004502201D00EB82000181681CC5B2042DE9
:10285000E6DB7CBD10B52DED048B04462078C8BBAB
:102860001F49B1F9060003F072F841EC190B9FED16
:102870001D0B53EC102B03F081F841EC180B03F007
:1028800035F8C4F8F0011649B1F9040003F05FF817
:1028900041EC190B9FED130B53EC102B03F06EF86A
:1028A00041EC180B03F022F8C4F8F4010C49B1F91B
:1028B000000003F04CF841EC190B9FED0C0B53ECAE
:1028C000102B03F05BF841EC180B03F00FF8C4F881
:1028D000F80101E0FFE700BFBDEC048B10BD000074
:1028E000AA0E0020000000000000F83F333333330D
:1028F0003333F33F0D48FFF725FF16E00B4800F098
:1029000017F80A48FFF7A6FF0848FFF743FF074CF0
:10291000B4F93030B4F92420B4F91810B4F90C002B
:1029200000F05AF8022001F0CDFFE7E7E40A0020AA
:10293000002112E001EB4103021D02EB830292ED44
:10294000010A01EBC10202EB420300F1340202EB87
:10295000830282ED040A4A1CD1B20429EADB90ED1D
:10296000020AD0ED050A30EE200AD0ED080A30EE5A
:10297000200AD0ED0B0A30EE200AF5EE000A20EE18
:10298000200A80ED790A90ED020AD0ED050A30EEBA
:10299000600AD0ED080A30EE600AD0ED0B0A30EE86
:1029A000200AF5EE000A20EE200A80ED7A0A90ED6A
:1029B000020AD0ED050A30EE200AD0ED080A30EE0A
:1029C000600AD0ED0B0A30EE600AF5EE000A20EE48
:1029D000200A80ED7B0A7047F0B585B004460D46AD
:1029E00016461F464FF40070009000208DF8080036
:1029F0008DF8090008208DF80A00200A8DF80B00D8
:102A0000E1B28DF80C10290A8DF80D10E9B28DF89D
:102A10000E10310A8DF80F10F1B28DF81010390A2E
:102A20008DF81110F9B28DF8121069460248FEF7C0
:102A300060FE05B0F0BD0000006400401CB5002041
:102A4000032103464FF48072CDE9001033A13948C9
:102A500002F0C2FC61E03848007A012804D0022864
:102A600008D003282FD102E000F032FB2BE000F069
:102A700037F928E03048407A022821D100202F4938
:102A800081F840002E4908602C48006800280DDBC2
:102A90002A480069002809DB9FED2A0A274880EDB3
:102AA000010A9FED290A80ED050A0CE09FED270A37
:102AB000224880ED010A9FED250A80ED050A02E01B
:102AC00000201F49086000BF1B48407A012804D03D
:102AD000022811D0032814D102E001F03DFD10E0DE
:102AE0000021084600F072FB0021084600F03EFA83
:102AF00000201749086004E01649084600F066FB0C
:102B000000BF00BF1448006808B9012000E00020A1
:102B1000114908600A2001F0D5FE9CE77365745FD7
:102B20006D6F746F725F63757272656E745F7461DE
:102B3000736B00004D440008AA0E0020A00A00207C
:102B40003800002000007A4400007AC40000000031
:102B50003C00002018FCFFFF9402434270B504467D
:102B60000420FFF795FA0C48047025464FF47A705C
:102B700045430120094908804FF0E020006940F0FA
:102B800002004FF0E021086108464561006940F00D
:102B90000100086170BD00001C0000201E00002024
:102BA00070B5044602F048FC012810D00B4800889C
:102BB000844206D309480088B4FBF0F5284601F0AA
:102BC00081FE06480088B4FBF0F100FB11444FF48D
:102BD0007A7104FB01F000F003F870BD1E000020C4
:102BE00070B5034600224FF0E02675690D4E367829
:102BF00003FB06F44FF0E026B16910E04FF0E02649
:102C0000B06988420BD0884202D20E1A324402E0E8
:102C10002E1A0E4432440146A24200D300E0EDE7F2
:102C200000BF70BD1C000020028842800A7BCB7A66
:102C300042EA0322028002884388D21AB2F5805FFA
:102C400009DD8268521E826002884388D21AA2F58A
:102C50000052C26113E002884388D21A12F5805FE5
:102C600009DA8268521C826002884388D21A02F50F
:102C70000052C26103E002884388D21AC26102880E
:102C8000162392FBF3F200EE102AB8EEC00A80ED94
:102C9000050A0388826803EB4232038BD21AC260B2
:102CA0001623C26892FBF3F202618B7B4A7B43EAF4
:102CB000022212B282800B7CCA7B43EA022212B249
:102CC000C280704700BF054A128802F04002002A05
:102CD000F9D0C2B2014B1B1D1A807047004800405A
:102CE000114890F84000012814D09FED100A0E48BA
:102CF00080ED010A9FED0E0A80ED050A006812289A
:102D000003DA0948006912280DDB0120064981F821
:102D1000400008E09FED070A034880ED010A9FED9F
:102D2000050A80ED050A7047A00A002000007AC459
:102D300000007A44000000001CB502F08DFB00206A
:102D4000012103460A02CDE9001009A10B4802F057
:102D500043FB0BE00A48006808B9012000E00020AE
:102D6000074908604FF4FA7001F0ACFDF2E700008B
:102D70006C6564325F7461736B000000852D000820
:102D8000A002434208B502F067FB00900CE0074840
:102D9000006808B9012000E00020044908604FF4F1
:102DA0007A71684601F0BCFDF1E700008C024342F5
:102DB0001CB501F0B3FB6420FFF7F2FE06480221C8
:102DC00000230A02CDE9001004A1074802F004FB29
:102DD00001F0D8FE00BFFEE70000002073746172AE
:102DE000745F7461736B00008D4400080FB500229E
:102DF0000092019202920392DFED572AB0EE622A0E
:102E000070EE202A72EE812ACDED002A70EE602A43
:102E100072EE812ACDED012A70EE602A72EEC12A8F
:102E2000CDED022A70EE202A72EEC12ACDED032AE2
:102E30000021DFED492AB0EE622A36E06A4602EB55
:102E40008102D2ED002AF5EEC02AF1EE10FA05DD7E
:102E50006A4602EB8102D2ED002A06E06A4602EBE6
:102E60008102D2ED002AF1EE622AF4EEC22AF1EEDE
:102E700010FA18DD6A4602EB8102D2ED002AF5EE67
:102E8000C02AF1EE10FA05DD6A4602EB8102D2EDAE
:102E9000002A06E06A4602EB8102D2ED002AF1EE3A
:102EA000622AB0EE622A4A1CD1B20429C6DBDFEDE9
:102EB0002B2AB4EEE22AF1EE10FA2CDDDFED272A00
:102EC000C2EE821ADDED002A62EEA12AFDEEE22AB0
:102ED00012EE902A12B20280DDED012A62EEA12AE2
:102EE000FDEEE22A12EE902A12B24280DDED022AB5
:102EF00062EEA12AFDEEE22A12EE902A12B2828040
:102F0000DDED032A62EEA12AFDEEE22A12EE902AFE
:102F100012B2C2801FE0DDED002AFDEEE22A12EEC1
:102F2000902A12B20280DDED012AFDEEE22A12EEB5
:102F3000902A12B24280DDED022AFDEEE22A12EE64
:102F4000902A12B28280DDED032AFDEEE22A12EE13
:102F5000902A12B2C2800FBD000000000080BB4466
:102F6000B0F900208A4200DA0180704713B5BDF93C
:102F70000000002819DDBDF90400002815DD01203E
:102F80004F49086000204F49C1F8880201204C4990
:102F90000831086000204C49C1F89402BDF90000D6
:102FA0000090BDF90400019073E0BDF90000002815
:102FB0001BDDBDF90400002817DA01204049086034
:102FC00000204049C1F8880201203D4908310860CD
:102FD00000203D49C1F89402BDF900000090BDF801
:102FE0000400404200B2019053E0BDF90000002807
:102FF0001BDABDF90400002817DD01203049086004
:1030000000203049C1F8880201202D4908310860AC
:1030100000202D49C1F89402BDF80000404200B2E2
:103020000090BDF90400019033E0BDF900000028D4
:103030001DDABDF90400002819DA002020490860D3
:1030400001202049C1F8880200201D49083108608C
:1030500001201D49C1F89402BDF80000404200B2B1
:103060000090BDF80400404200B2019011E0BDF8AC
:10307000000070B9BDF8040058B9BDF900104FF058
:103080008040FFF718F9BDF904101048FFF715F953
:103090001CBD4FF4FA716846FFF762FF4FF4FA71F6
:1030A00001A8FFF75DFFBDF900104FF08040FFF76A
:1030B00002F9BDF904100548FFF7FFF800BFE7E784
:1030C00084024042000040420000444200040140AB
:1030D00038480068B0F5FA7F34D009DC90B1962802
:1030E00014D0B0F5967F1BD0B0F5AF7F5BD125E053
:1030F000A0F28A2080B3502839D064283CD0AA2876
:1031000051D143E001202C4908604CE09FED2B0A8F
:103110002B4880ED090A9FED2B0A80ED0D0A42E055
:103120009FED290A264880ED090A9FED270A80EDC8
:103130000D0A012020490831086034E000201E49B2
:10314000086030E09FED1F0A1D4880ED090A9FEDE1
:103150001B0A80ED0D0A26E0FFE79FED180A1848CC
:1031600080ED090A9FED170A80ED0D0A1BE0002093
:1031700011490831086016E09FED120A104880EDF1
:10318000090A9FED0E0A80ED0D0A0CE09FED0E0A74
:103190000B4880ED090A9FED0C0A80ED0D0A002016
:1031A0000549086000BF00BF02480068401C014993
:1031B0000860704738000020888243420080BBC40A
:1031C000A00A00200080BB440000000013B5BDF938
:1031D0000000002817DDBDF90400002813DD0120E0
:1031E0004B49086000204B49C1F8BC024A490860BD
:1031F00001204849C1F8B402BDF900000090BDF9B2
:10320000040001906DE0BDF90000002819DDBDF952
:103210000400002815DA00203D49086001203D49DE
:10322000C1F8BC023C49086000203A49C1F8B40228
:10323000BDF900000090BDF80400404200B20190CA
:103240004FE0BDF9000000281ADABDF9040000289B
:1032500016DD01202E49086000202E49C1F8BC026D
:1032600001202D49086000202A49C1F8B402BDF8A8
:103270000000404200B20090BDF90400019030E02F
:10328000BDF9000000281BDABDF90400002817DA98
:1032900000201F49086001201E49C1F8BC021E49D8
:1032A000086000201B49C1F8B402BDF8000040428C
:1032B00000B20090BDF80400404200B2019010E05E
:1032C000BDF8000068B9BDF8040050B9BDF90010A0
:1032D0001248FEF7F2FFBDF904101148FEF7EBFFAC
:1032E0001CBD4FF416716846FFF73AFE4FF4167195
:1032F00001A8FFF735FEBDF900100848FEF7DDFF15
:10330000BDF904100648FEF7D6FF00BFE8E700004D
:10331000A882434200804142B8824142000C0040F2
:103320000008004070B504460D46606D03287DD14D
:1033300095ED030AD5ED040A30EE600A85ED070A23
:1033400095ED000AD5ED070A20EE200A85ED080A62
:1033500095ED090AD5ED010A95ED071A00EE810AEF
:1033600085ED090A95ED070AD5ED060A30EE600AEB
:10337000D5ED020A20EE200A85ED0A0AD5ED180ADD
:10338000F8EE600AB0EE600A05F12400FFF76EF96E
:1033900095ED080AD5ED090A30EE200AD5ED0A0AA6
:1033A00030EE200A85ED0F0AD5ED170AF8EE600A17
:1033B000B0EE600A05F13C00FFF758F995ED070AF9
:1033C00085ED060AA06D022801D0A06D40B995EDEB
:1033D0000F0AD4ED040A30EE600A84ED070A0AE011
:1033E000A06D012807D194ED030AD4ED040A30EE54
:1033F000600A84ED070A94ED000AD4ED070A20EE76
:10340000200A84ED080A94ED090AD4ED010A94ED2E
:10341000071A00EE810A84ED090A94ED070AD4ED3B
:10342000060A30EE600AD4ED020A00E028E020EE41
:10343000200A84ED0A0AD4ED180AF8EE600AB0EE0C
:10344000600A04F12400FFF711F994ED080AD4EDA5
:10345000090A30EE200AD4ED0A0A30EE200A84ED83
:103460000F0AD4ED170AF8EE600AB0EE600A04F114
:103470003C00FFF7FBF894ED070A84ED060A82E1B1
:10348000606D04287ED195ED030AD5ED040A30EE77
:10349000600A85ED070A95ED070AD5ED060A30EEBC
:1034A000600AD5ED000A20EE200A85ED080A95EDA8
:1034B000010AD5ED070A20EE200A85ED090A95EDEF
:1034C000070AD5ED060AB0EE001A01EE600AD5ED46
:1034D000050A30EE200AD5ED020A20EE200A85ED1D
:1034E0000A0AD5ED180AF8EE600AB0EE600A05F196
:1034F0002400FFF7BBF895ED080AD5ED090A30EE78
:10350000200AD5ED0A0A30EE200A85ED100A95ED65
:10351000120AD5ED100A30EE200A85ED110AD5ED1C
:10352000170AF8EE600AB0EE600A05F14400FFF7F2
:103530009DF895ED110A85ED120A95ED060A85EDC7
:10354000050A95ED070A85ED060A95ED110AD4EDF9
:10355000040A30EE600A84ED070A94ED070AD4ED00
:10356000060A30EE600AD4ED000A20EE200A84ED4F
:10357000080A94ED010AD4ED070A20EE200A84ED32
:10358000090A00E046E094ED070AD4ED060AB0EE21
:10359000001A01EE600AD4ED050A30EE200AD4EDDF
:1035A000020A20EE200A84ED0A0AD4ED180AF8EE89
:1035B000600AB0EE600A04F12400FFF757F894EDBA
:1035C000080AD4ED090A30EE200AD4ED0A0A30EEDA
:1035D000200A84ED100A94ED120AD4ED100A30EEA0
:1035E000200A84ED110AD4ED170AF8EE600AB0EE55
:1035F000600A04F14400FFF739F894ED110A84EDF4
:10360000120A94ED060A84ED050A94ED070A84ED8A
:10361000060AB8E0606D05287ED195ED030AD5ED68
:10362000040A30EE600A85ED070A95ED0B0AD5ED28
:10363000070A95ED0D1A00EE810A85ED0B0AD5ED0E
:10364000180AF8EE600AB0EE600A05F12C00FFF7E8
:103650000DF895ED070AD5ED060A30EE600AD5EDB6
:103660000D0A80EE201A85ED0C1A95ED000AD5EDB5
:10367000070A20EE200A85ED080A95ED010AD5ED2E
:103680000B0A20EE200A85ED090A95ED020AD5ED18
:103690000C0A20EE200A85ED0A0A95ED080AD5ED00
:1036A000090A30EE200AD5ED0A0A30EE200A85ED2F
:1036B0000E0AD5ED170AF8EE600AB0EE600A05F1C1
:1036C0003800FEF7D3FF95ED070A85ED060A95ED64
:1036D0000E0AD4ED040A30EE600A84ED070A94ED78
:1036E0000B0AD4ED070A94ED0D1A00EE810A84ED61
:1036F0000B0AD4ED180AF8EE600AB0EE600A04F185
:103700002C00FEF7B3FF94ED070AD4ED060A30EE65
:10371000600AD4ED0D0A00E035E080EE201A84ED59
:103720000C1A94ED000AD4ED070A20EE200A84ED6D
:10373000080A94ED010AD4ED0B0A20EE200A84ED6C
:10374000090A94ED020AD4ED0C0A20EE200A84ED59
:103750000A0A94ED080AD4ED090A30EE200AD4EDE5
:103760000A0A30EE200A84ED0E0AD4ED170AF8EEAC
:10377000600AB0EE600A04F13800FEF777FF94EDBE
:10378000070A84ED060A606D03280DD1A06D01289B
:1037900002D0A06D022802D194ED0F0A70BDA06D79
:1037A00070B995ED0F0AF9E7606D042802D194ED28
:1037B000110AF3E7606D052802D194ED0E0AEDE7DA
:1037C0009FED010AEAE700000000000008B541F2A1
:1037D0008830DFED221A9FED221AF1EE040A9FEDE8
:1037E0001F0A83000122032100901E4800F056F8B2
:1037F00041F28830DFED191A9FED191AF1EE040A33
:103800009FED160A8300012203210090164800F064
:1038100045F84FF4FA60DFED111A9FED111AF1EE41
:10382000040A9FED0E0A41F2883301220321009021
:103830000E4800F033F84FF4FA60DFED081A9FED00
:10384000081AF1EE040A9FED050A41F288330122BD
:1038500003210090064800F021F808BD0000000098
:10386000CDCCCC3DE00C00204C0D0020B80D00204C
:10387000240E002010B5029C0466C3654165826574
:1038800080ED000AC0ED010A80ED021A10BD80ED46
:10389000000AC0ED010A80ED021A70472DE9F041DF
:1038A0002DED048B82B004460D4616461F46B0EE41
:1038B000408AF0EE608AB0EE419AF0EE619ADDF84F
:1038C00030800D4860660D48A06684ED038ACDF80F
:1038D0000080B0EE691AF0EE490AB0EE680A3B4685
:1038E000324629462046D4F864C0E04702B0BDEC19
:1038F000048BBDE8F0810000753800088F3800089F
:103900002DE9F04105460E461C4807681C48006832
:10391000001D00F06FFE50B91948006890F82C1097
:103920000120884017490968814316480160681CD6
:1039300038B936B112480168091D134800F098FEE5
:103940001AE07C190E4800684460BC4207D20C485B
:103950000168091D0D48006800F070FE0CE0084881
:103960000168091D0A48006800F068FE09480068FF
:10397000844201D207480460BDE8F0815400002071
:103980004000002058000020B40F00204800002014
:10399000440000207000002010B5044600F074FEC2
:1039A00024480068401C234908602348006840B947
:1039B000214804600846006801280DD100F0DEF9B6
:1039C0000AE01E48006838B91B480068C06AE16A0E
:1039D000884201D81848046019480068401C1849FA
:1039E000086008460068206494F82C100120884084
:1039F00014490968084313490860E16A01EB810131
:103A0000114A02EB8100211D00F032FE00F066FE3B
:103A10000A48006868B108480068C06AE16A8842DC
:103A200007D24FF0805009490860BFF34F8FBFF3B2
:103A30006F8F10BD50000020400000205C0000206F
:103A40006C00002058000020000F002004ED00E072
:103A500010B500F019FE10480068D0B90F4800F00A
:103A6000DDFD0F4800F0DAFD0C480E4908600C48F7
:103A70000D49086000220C210A2001F0E9F90649ED
:103A800008600846006820B108A10348006800F0FB
:103A9000DDFE00F023FE10BD84000020C80F0020D2
:103AA000DC0F00207C00002080000020546D72514B
:103AB0000000000010B516E000F0E6FD0C48C068FC
:103AC000C468201D00F096FD0A480068401E0949A0
:103AD000086009480068401E0749086000F0FEFDC4
:103AE000204600F05FF8044800680028E4D110BDCB
:103AF000A00F0020500000204C00002070B50446AC
:103B00000D46206C70B1216CE0680144E160D4E99D
:103B10000210884201D32168E1602846226CE168E6
:103B2000FCF7E8FC70BD2DE9F04104460F46154650
:103B30004FF00008A66B206C48B9206800282CD1F3
:103B4000A06801F033FD80460020A06025E07DB92B
:103B50003946226C6068FCF7CDFC216C6068084433
:103B60006060D4E90101884217D32068606014E0E6
:103B70003946226CE068FCF7BDFC216CE068411A14
:103B8000E1602168E068884203D2216CA068411A94
:103B9000E160022D01D106B1761E701CA063404683
:103BA000BDE8F08110B50446206B00F0B5FD20465D
:103BB00000F0B2FD10BD00000146084A126812680C
:103BC0000AB9012200E000220A600A6822B9034A09
:103BD0001268D268106800E0002070477C00002066
:103BE00030B54FF49633174800F007042CB1C01DD0
:103BF00020F00700134C041B1B1B0246124C2260D2
:103C00000024114D6C60D018083820F007000F4CCC
:103C1000206000240D4D2D686C600C4D2D682C60CB
:103C20001146441A4C60094C24680C60084D4C68DD
:103C30002C60084D4C682C604FF00044064D2C6001
:103C400030BD0000F00F0020900000209800002000
:103C5000A00000209C000020A400002000BFFFF76F
:103C600029FF064800680128F9D94FF0805004491F
:103C70000860BFF34F8FBFF36F8FF0E7000F002096
:103C800004ED00E02DE9F04106460D461746984642
:103C9000069C0DB9246000E02760E66325640121DD
:103CA000204601F003F984F84C80BDE8F0812DE94D
:103CB000F05F82460E4690469B460A9F0C9C56B982
:103CC00000BF502080F31188BFF34F8FBFF36F8F79
:103CD00000BF00BFFEE74FEA8801A522206BFCF77A
:103CE00080FCA8F10100216B01EB800929F0070994
:103CF00009F0070008B9012000E0002050B900BF1A
:103D0000502080F31188BFF34F8FBFF36F8F00BF38
:103D100000BFFEE7002507E0715D04F13400415566
:103D2000705D00B902E06D1C0A2DF5D300BF0021C3
:103D30003D200155052F00D30427E762A76400202A
:103D4000E064201D00F077FC04F1180000F073FC23
:103D50002461C7F10500A06164620020206584F839
:103D600054005A465146484600F028FB20600B9804
:103D700008B10B980460BDE8F09F000010B5002466
:103D800007E004EB84010F4A02EB810000F046FCDF
:103D9000641C052CF5D30C4800F040FC0B4800F0E7
:103DA0003DFC0B4800F03AFC0A4800F037FC0A489A
:103DB00000F034FC044809490860044808490860D8
:103DC00010BD0000000F0020640F0020780F0020BD
:103DD0008C0F0020A00F0020B40F00204400002012
:103DE0004800002010B50146164800E0006803684E
:103DF0008B42FBD30246436813448B4204D1436891
:103E00004C682344436001460A464B6813440468E7
:103E1000A34211D10C4C03682468A34208D04B681C
:103E20000468646823444B6003681B680B6005E00A
:103E3000054B1B680B6001E003680B60884200D0F3
:103E4000016010BD90000020980000202DE9F04195
:103E500004460D4616461F464FF000086560246173
:103E6000B5420CD8F01BA169884202D34FF001087B
:103E700011E0211D0948006800F0E0FB0BE0BE42A4
:103E800004D2BD4202D34FF0010804E0211D0448D2
:103E9000006800F0D3FB4046BDE8F08180000020C0
:103EA0007C00002070B5054600F0EEFBA86B08B959
:103EB000012400E0002400F011FC204670BD70B524
:103EC000054600F0E1FBA86BE96B884201D10124B3
:103ED00000E0002400F002FC204670BDF8B5054665
:103EE0000F4616480068C068C468201D00F082FBB9
:103EF000E06901281DD1A06941192B463A462046A8
:103F0000FFF7A4FFA8B1002003462A46014600900F
:103F1000204601F0A9FC064656B900BF502080F3A8
:103F20001188BFF34F8FBFF36F8F00BF00BFFEE755
:103F300000BF2046616A8847F8BD00007C00002071
:103F400070B586B06AE00398002867DB059C60695D
:103F500008B9012000E0002010B9201D00F04AFB44
:103F600002A800F0BBF8054603980A2854D2DFE8FF
:103F700000F009050731334F0608323400BF00BF97
:103F800000BF00BF0498A269811803462A46204654
:103F9000FFF75CFFE8B12046616A8847E0690128C5
:103FA00017D1002000900498A169421800231946F7
:103FB000204601F059FC064656B900BF502080F358
:103FC0001188BFF34F8FBFF36F8F00BF00BFFEE7B5
:103FD00000BF22E000BF20E000BF0498A061A069FC
:103FE00008B1012000E0002050B900BF502080F34C
:103FF0001188BFF34F8FBFF36F8F00BF00BFFEE785
:10400000A06941192B462A462046FFF71FFF04E00E
:10401000204600F081FB00E000BF00BF002203A9A2
:104020000348006801F0DEF800288CD106B070BDAE
:1040300084000020F8B505460C4600F0EDFD68460A
:1040400000F04CF80646009820BB44B9B54206D8AB
:1040500001F05CFB31462846FFF740FF1CE03CB115
:104060000E480068006808B9012000E000200446FE
:10407000A91B22460A48006800F0FEFB01F046FB3F
:1040800050B94FF0805007490860BFF34F8FBFF31E
:104090006F8F01E001F03AFBF8BD000080000020C6
:1040A0008400002004ED00E00A490968096809B9A4
:1040B000012100E0002121B14FF0FF31064A1160DB
:1040C00006E004490968C968C868034A4168116084
:1040D00070470000440000207000002070B50446C6
:1040E00001F0BAF9054607480068854204D200F09D
:1040F0000BF80120206001E00020206001480560ED
:10410000284670BD8C0000202DE9F84332E0244899
:104110000068C068056822480068C068C468201D3F
:1041200000F068FA2046616A8847E069012821D1D9
:10413000A0694619AE4207D966602461211D18485E
:10414000006800F07BFA15E0002003462A4601468D
:104150000090204601F088FB074657B900BF502069
:1041600080F31188BFF34F8FBFF36F8F00BF00BF85
:10417000FEE700BF0A480068006808B9012000E0B7
:1041800000200028C3D00648D0F800800548006809
:10419000034908600348C0F80080BDE8F8830000C8
:1041A0007C000020800000200E480068401C08B9F8
:1041B000012000E0002050B900BF502080F311889A
:1041C000BFF34F8FBFF36F8F00BF00BFFEE700BF8D
:1041D000502080F31188BFF34F8FBFF36F8F00BF64
:1041E00000BFFEE7A800002008B500BF6846FFF743
:1041F000E3FC044620460099FFF71CFFFFF7A0FEF2
:10420000F4E770B5044600F03FFA94F9455010E029
:10421000606A08B9012000E0002038B904F12400E8
:1042200001F028FA18B100F06BFC00E003E0681E12
:1042300045B2002DECDC00BFFF2084F8450000F003
:104240004DFA00F021FA94F9445010E0206908B9C1
:10425000012000E0002048B904F1100001F00AFA42
:1042600008B100F04DFC681E45B200E001E0002DF1
:10427000ECDC00BFFF2084F8440000F02FFA70BD92
:104280002DE9F04104464FF0000800F0C5FC464817
:10429000006808B9FFF7A4FC4448006820400028E3
:1042A0006BD1D4B1083404F00700B0B104F00700BA
:1042B000C0F10800044404F0070008B9012000E040
:1042C000002050B900BF502080F31188BFF34F8FFA
:1042D000BFF36F8F00BF00BFFEE7002C4DD0344806
:1042E0000068844249D8334E3046056801E02E46C6
:1042F0002D686868A04202D228680028F7D12A48B1
:104300000068854239D0306800F1080828683060BC
:104310006868001B102819D92F1907F0070008B981
:10432000012000E0002050B900BF502080F3118828
:10433000BFF34F8FBFF36F8F00BF00BFFEE768680A
:10434000001B78606C603846FFF74CFD18496868C0
:104350000968081A1649086008460068164909687D
:10436000884203D212480068134908600F49686800
:104370000968084368600020286001F0C7F908F068
:10438000070008B9012000E0002050B900BF50200C
:1043900080F31188BFF34F8FBFF36F8F00BF00BF53
:1043A000FEE74046BDE8F08198000020A400002010
:1043B0009C00002090000020A0000020001F4FF073
:1043C00080730360001F21F001030360001F054B91
:1043D000036014380260001F6FF00203036020388E
:1043E00070470000A9410008F0B585B004460D46AD
:1043F00016461F4640F2FF10009000208DF808007E
:104400008DF8090008208DF80A00200A8DF80B00AD
:10441000E1B28DF80C10290A8DF80D10E9B28DF873
:104420000E10310A8DF80F10F1B28DF81010390A04
:104430008DF81110F9B28DF8121069460248FDF797
:1044400058F905B0F0BD00000064004018E00D48C8
:10445000FEF724F90B4CB4F93C30B4F92C20B4F934
:104460001C10B4F90C00FFF7BFFF0748006808B93B
:10447000012000E00020044908600A2000F022FA30
:10448000E5E70000A00A0020980243421CB504465C
:1044900000F0FAF80020012103468022CDE9001047
:1044A0000FA1124800F098FF002002210346CA0124
:1044B000CDE900100EA1124800F08EFF002003216C
:1044C00003464FF48072CDE900100EA1114800F0B0
:1044D00083FF1148006800F08DFA00F0FFF81CBD62
:1044E0006C6564315F7461736B000000392D0008E6
:1044F000636F6E74726F6C5F7461736B00000000A9
:104500003D2A0008636861737369735F7461736B3C
:1045100000000000F52800080000002010B5B420BD
:10452000FEF71CFBFCF738FAFCF734FDFCF790F9BA
:10453000FCF70CF9FCF772FCFCF7FCFBFFF746F903
:104540000020034908600349C1F8880210BD00003B
:10455000908243420080434210B521480068B0F584
:10456000FA7F1CD004DC50B1B0F5967F30D10CE05E
:10457000B0F57A7F19D0A0F2145018BB23E04FF4A5
:104580007A710846FEF722FE22E000210846FEF777
:104590001DFE4FF448710846FEF7E8FC18E09FED59
:1045A000110A114880ED7C0A12E09FED100A0E48B6
:1045B00080ED7C0A0E490846FEF708FE00210846F9
:1045C000FEF7D4FC04E000210846FEF7FFFD00BF23
:1045D00000BF03480068401C0149086010BD00008E
:1045E0003C0000200080BB44E40A002000000000E2
:1045F00018FCFFFF01460A69D1E901309860D1E952
:10460000010358605068884201D1886850600020DA
:1046100008611068401E10601068704700F10801C2
:1046200041604FF0FF31816000F10801C16001611C
:1046300000210160704700210161704710B50246FA
:104640000B685C1C0CB9106907E002F1080000E07F
:104650004068446824689C42FAD944684C604C68BD
:10466000A160886041600A611468641C146010BD18
:1046700042684A6093688B609368596091600861F2
:1046800003685B1C0360704700BF502080F31188F3
:10469000BFF34F8FBFF36F8F00BF0E480068401C01
:1046A0000C49086008460068012812D10A480068D1
:1046B000C0B208B9012000E0002050B900BF50206E
:1046C00080F31188BFF34F8FBFF36F8F00BF00BF20
:1046D000FEE77047A800002004ED00E00D480068E8
:1046E00050B900BF502080F31188BFF34F8FBFF344
:1046F0006F8F00BF00BFFEE706480068401E0549F7
:1047000008600846006820B9002080F3118800BFC7
:1047100000BF7047A800002070B506463546002E41
:104720003FD0083D2C461F4960680968084008B121
:10473000012000E0002050B900BF502080F3118814
:10474000BFF34F8FBFF36F8F00BF00BFFEE720683E
:1047500008B9012000E0002050B900BF502080F3CC
:104760001188BFF34F8FBFF36F8F00BF00BFFEE70D
:104770000C4960680968084098B1206888B90949FF
:10478000606809688843606000F046FA064960681E
:1047900009680844044908602046FFF723FB00F03D
:1047A000B5FF70BDA40000209C00002000204FF049
:1047B000E02108618861064800684FF47A71B0FB17
:1047C000F1F0401E4FF0E02148610720086170477A
:1047D0000800002070B5FBF797FD0446102C16D397
:1047E00004F1E02090F8F05315480078854201DB91
:1047F000012000E0002050B900BF502080F3118854
:10480000BFF34F8FBFF36F8F00BF00BFFEE70D48B0
:10481000006800F4E0600C490968884201D8012072
:1048200000E0002050B900BF502080F31188BFF392
:104830004F8FBFF36F8F00BF00BFFEE770BD00005A
:10484000AC0000200CED00E0B0000020024600208B
:104850000BE0084B53F8303033B9064B43F83010B7
:1048600003EBC0035A6002E0401C0828F1D300BFEC
:1048700070470000C00E00202DE9F04105460E46AD
:1048800017462C46FFF700FF94F94400401C10B96E
:10489000002084F8440094F94500401C10B9002021
:1048A00084F84500FFF71AFFA06B28B93A46314655
:1048B00004F1240000F046F92046FFF7A2FCBDE811
:1048C000F081000070B504460025D4B1124800689C
:1048D00008B9012000E0002050B900BF502080F34B
:1048E0001188BFF34F8FBFF36F8F00BF00BFFEE78C
:1048F00000F092F900212046FFF702F800F006FFD1
:1049000005463DB94FF0805004490860BFF34F8F12
:10491000BFF36F8F70BD00007800002004ED00E051
:104920002DE9F04704460F464FF0000954B900BF87
:10493000502080F31188BFF34F8FBFF36F8F00BFFC
:1049400000BFFEE70FB1012000E0002050B900BF1A
:10495000502080F31188BFF34F8FBFF36F8F00BFDC
:1049600000BFFEE72048006808B9012000E00020F1
:1049700050B900BF502080F31188BFF34F8FBFF3B1
:104980006F8F00BF00BFFEE700F046F917480668CA
:104990002068C5192068B04207D92068A8420BD901
:1049A000B54209D94FF0010906E02068A84201D8B4
:1049B000B54201D94FF001092560B9F1000F03D0CC
:1049C000A81B0021FEF79CFF00F0A0FE8046B8F176
:1049D000000F07D14FF0805005490860BFF34F8F9B
:1049E000BFF36F8FBDE8F0877800002054000020EF
:1049F00004ED00E070B50546FFF746FE15B93048F6
:104A0000006800E028460446201DFFF7F3FD78B952
:104A1000E06A00EB80002B4951F8200040B994F87F
:104A20002C100120884028490968814326480160EC
:104A3000A06A18B104F11800FFF7DCFD23480068F4
:104A4000401C224908601E480068844209D1211D8B
:104A50001F48FFF70DFE1F480068401C1D490860F5
:104A600009E01D480068401E1B4908602046FFF70A
:104A700099F8FFF719FBFFF731FE18480068E8B115
:104A80000F480068844219D11548006808B9012010
:104A900000E0002050B900BF502080F31188BFF320
:104AA0004F8FBFF36F8F00BF00BFFEE74FF0805006
:104AB0000C490860BFF34F8FBFF36F8F70BD0000CC
:104AC00040000020000F0020580000206C00002053
:104AD000A00F00204C000020500000205C000020AF
:104AE0007800002004ED00E00349096801600349F3
:104AF00009684160704700006800002054000020F1
:104B000001200149086070476400002070B5044628
:104B10000D4654B900BF502080F31188BFF34F8F6A
:104B2000BFF36F8F00BF00BFFEE705480168183173
:104B30002046FFF783FD01212846FEF7E1FE70BD08
:104B40004000002070B505460E46144655B900BF1A
:104B5000502080F31188BFF34F8FBFF36F8F00BFDA
:104B600000BFFEE70648016818312846FFF780FDC0
:104B70000CB14FF0FF3621463046FEF7C1FE70BD46
:104B8000400000201CB51D4800210B468222CDE9C3
:104B900000101BA11C4800F01FFC0446012C02D190
:104BA00000F036FE0446012C15D100BF502080F3E2
:104BB0001188BFF34F8FBFF36F8F00BF4FF0FF30EF
:104BC000124908600120124908600020114908605C
:104BD00000F070F810E0601C08B1012000E0002037
:104BE00050B900BF502080F31188BFF34F8FBFF33F
:104BF0006F8F00BF00BFFEE71CBD000074000020E7
:104C000049444C45000000005D3C00087000002055
:104C10005C0000205400002002480068401C01494C
:104C200008607047780000201D48006818B1012016
:104C30001C49086032E000201A4908601A480068E0
:104C4000B0FA80F0C0F11F0101EB8100174A52F861
:104C5000200008B1012000E0002050B900BF502022
:104C600080F31188BFF34F8FBFF36F8F00BF00BF7A
:104C7000FEE701EB81020D4B03EB820042685268B4
:104C8000426000F108024368934202D142685268D0
:104C900042604268D268064B1A6000BF704700004D
:104CA000780000206400002058000020000F002041
:104CB000400000201CB5524800685249884201D08B
:104CC000012000E0002050B900BF502080F311887F
:104CD000BFF34F8FBFF36F8F00BF00BFFEE74848A1
:104CE00000684849491E884201D0012000E00020A8
:104CF00050B900BF502080F31188BFF34F8FBFF32E
:104D00006F8F00BF00BFFEE73F4908460078019063
:104D1000FF200A4610700846007800909DF80000B9
:104D200000F0F0009DF80020904201D1012000E049
:104D3000002050B900BF502080F31188BFF34F8F7F
:104D4000BFF36F8F00BF00BFFEE79DF8000000F0CB
:104D500050002E4A107007202D4A106009E02C48A0
:104D60000068401E2A4A10609DF800004006000EB0
:104D700000909DF8000000F080008028EFD02448CB
:104D80000068C0F10700042801D1012000E00020E4
:104D900050B900BF502080F31188BFF34F8FBFF38D
:104DA0006F8F00BF00BFFEE7194800680002184A75
:104DB00010601046008800F4E0601060124A01980C
:104DC00010700F482030006840F470000C4920310A
:104DD00008600846006840F070400860FFF7E6FC95
:104DE00000200C490860FBF757FA0B48006840F0B8
:104DF000404009490860FBF73BFA00201CBD000059
:104E000000ED00E071C20F4100E400E0AC000020C2
:104E1000B0000020A800002034EF00E010B500BF73
:104E2000502080F31188BFF34F8FBFF36F8F00BF07
:104E300000F018FB18B14FF080500449086000BF23
:104E4000002080F3118800BF10BD000004ED00E0D9
:104E50002DE9F84305460E4690460DB1012000E0CD
:104E6000002050B900BF502080F31188BFF34F8F4E
:104E7000BFF36F8F00BF00BFFEE70EB9002701E050
:104E800005FB06F707F15000FFF7FAF904464CB1AD
:104E9000A14609F1500943464A4631462846009446
:104EA000FEF7F0FE2046BDE8F883000070B5054629
:104EB0000E462C4654B900BF502080F31188BFF332
:104EC0004F8FBFF36F8F00BF00BFFEE7FFF7DCFB24
:104ED000D4E90F12206801FB0200A0600020A0634B
:104EE00020686060E06B401E226C216800FB0211AC
:104EF000E160FF2084F8440084F845009EB92069F1
:104F000008B9012000E00020A8B904F1100000F069
:104F1000B1FB80B14FF0805009490860BFF34F8F5B
:104F2000BFF36F8F07E004F11000FFF777FB04F188
:104F30002400FFF773FBFFF7D1FB012070BD0000D9
:104F400004ED00E02DE9FF4383B0064688461D4688
:104F50004FF00009344654B900BF502080F3118847
:104F6000BFF34F8FBFF36F8F00BF00BFFEE7B8F1F5
:104F7000000F01D1206C08B9012000E0002050B9D9
:104F800000BF502080F31188BFF34F8FBFF36F8FA6
:104F900000BF00BFFEE7022D02D1E06B012801D166
:104FA000012000E0002050B900BF502080F311889C
:104FB000BFF34F8FBFF36F8F00BF00BFFEE700F05E
:104FC0003BFA08B9059808B9012000E0002050B963
:104FD00000BF502080F31188BFF34F8FBFF36F8F56
:104FE00000BF00BFFEE700BFFFF74EFBA06BE16B09
:104FF000884201D3022D28D12A4641462046FEF799
:1050000092FD0746606A08B9012000E0002068B9F7
:1050100004F1240000F02EFB88B14FF0805032499B
:105020000860BFF34F8FBFF36F8F08E03FB14FF0C1
:1050300080502D490860BFF34F8FBFF36F8FFFF78C
:105040004DFB012007B0BDE8F083059818B9FFF7C4
:1050500045FB0020F6E7B9F1000F04D101A8FFF7E6
:1050600043FD4FF00109FFF739FBFFF7D5FDFFF7CF
:105070000BFB94F94400401C10B9002084F8440054
:1050800094F94500401C10B9002084F84500FFF752
:1050900025FB05A901A800F059F9F0B92046FEF753
:1050A0000EFFA0B104F110000599FFF72FFD204677
:1050B000FFF7A7F800F02AFB002895D14FF08050A9
:1050C00009490860BFF34F8FBFF36F8F8CE720460D
:1050D000FFF797F800F01AFB86E72046FFF791F8F4
:1050E00000F014FB0020ADE704ED00E02DE9F05FD7
:1050F00007468A4690461E463C4654B900BF50209B
:1051000080F31188BFF34F8FBFF36F8F00BF00BFD5
:10511000FEE7BAF1000F01D1206C08B9012000E0D0
:10512000002050B900BF502080F31188BFF34F8F8B
:10513000BFF36F8F00BF00BFFEE7022E02D1E06B0E
:10514000012801D1012000E0002050B900BF50200B
:1051500080F31188BFF34F8FBFF36F8F00BF00BF85
:10516000FEE7FFF737FB00BF5021EFF3118081F31B
:105170001188BFF34F8FBFF36F8F00BF0546A06B41
:10518000E16B884201D3022E23D194F945B0324617
:1051900051462046FEF7C7FC0BF1010088B9606A52
:1051A00008B9012000E0002080B904F1240000F0DB
:1051B00061FA58B1B8F1000F08D00120C8F800001A
:1051C00004E00BF1010040B284F845004FF0010902
:1051D00001E04FF0000900BF85F3118800BF484689
:1051E000BDE8F09F2DE9F74183B005460E464FF02C
:1051F00000082C4654B900BF502080F31188BFF33B
:105200004F8FBFF36F8F00BF00BFFEE70EB9206C5A
:1052100008B9012000E0002050B900BF502080F301
:105220001188BFF34F8FBFF36F8F00BF00BFFEE742
:1052300000F002F908B9059808B9012000E0002043
:1052400050B900BF502080F31188BFF34F8FBFF3D8
:105250006F8F00BF00BFFEE700BFFFF715FAA76B17
:10526000F7B131462046FEF749FC781EA06320695D
:1052700008B9012000E0002060B904F1100000F03E
:10528000F9F938B14FF080502F490860BFF34F8FC4
:10529000BFF36F8FFFF722FA012006B0BDE8F0815F
:1052A000059818B9FFF71AFA0020F6E7B8F1000FD1
:1052B00004D101A8FFF718FC4FF00108FFF70EFA20
:1052C000FFF7AAFCFFF7E0F994F94400401C10B97D
:1052D000002084F8440094F94500401C10B90020D7
:1052E00084F84500FFF7FAF905A901A800F02EF8A7
:1052F000F0B92046FEF7D6FDA0B104F124000599CF
:10530000FFF704FC2046FEF77CFF00F0FFF90028C1
:10531000A3D14FF080500C490860BFF34F8FBFF30B
:105320006F8F9AE72046FEF76CFF00F0EFF994E7E5
:105330002046FEF766FF00F0E9F92046FEF7B2FDD1
:1053400000288AD00020A8E704ED00E070B50546EB
:105350000C4655B900BF502080F31188BFF34F8F22
:10536000BFF36F8F00BF00BFFEE754B900BF5020EE
:1053700080F31188BFF34F8FBFF36F8F00BF00BF63
:10538000FEE7FFF781F9124802686868131A20687F
:10539000401C08B9002617E00E49286809688842B1
:1053A00004D06868904201D801260DE02068984238
:1053B00007D92068C01A20602846FFF795FB002611
:1053C00002E0002020600126FFF788F9304670BD1A
:1053D00054000020680000202DE9FF4F85B0804672
:1053E00089461746DDE912ABB800FEF749FF0646CD
:1053F00056B15820FEF744FF04460CB1266304E082
:105400003046FFF789F900E000247CB10020CDE9A7
:1054100000ABCDE902403A4649464046089BFEF7BC
:1054200046FC2046FEF7B8FA012501E04FF0FF35B3
:10543000284609B0BDE8F08F0549096809B901207F
:1054400005E00449096809B9022000E0002070471E
:105450005C000020780000200149086870470000C7
:10546000540000202DE9F0414FF000084448006846
:10547000002877D143480068451C4248056015BBA9
:1054800041480068006808B9012000E0002050B9D8
:1054900000BF502080F31188BFF34F8FBFF36F8F91
:1054A00000BF00BFFEE73848076838480068364943
:1054B00008603648076036480068401C3449086078
:1054C000FEF7F2FD00BF3348006885423CD300BFC1
:1054D0002D480068006808B9012000E0002020B1D4
:1054E0004FF0FF302B4908602DE027480068C06866
:1054F000C4686668B54202D22648066023E0201DD3
:10550000FFF778F8A06A18B104F11800FFF772F8F5
:1055100094F82C10012088401F49096808431E494F
:105520000860E16A01EB81011C4A02EB8100211D48
:10553000FFF79EF81A49E06A0968C96A8842C7D32A
:105540004FF00108C4E700BF15480068C06A00EBCF
:105550008000124951F82000012801D94FF00108BC
:1055600005E0FFE70F480068401C0E4908600E4840
:10557000006808B14FF001084046BDE8F081000026
:105580007800002054000020440000204800002043
:10559000680000207000002058000020000F00204C
:1055A00040000020600000206400002070B5054627
:1055B0002C460026002D55D02B480068844201D18E
:1055C000012000E0002050B900BF502080F3118876
:1055D000BFF34F8FBFF36F8F00BF00BFFEE7E06CDC
:1055E00050B900BF502080F31188BFF34F8FBFF335
:1055F0006F8F00BF00BFFEE7E06C401EE064A16C4F
:10560000E06A88422ED0E06C60BB201DFEF7F2FFFE
:1056100078B9E06A00EB8000144951F8200040B9E5
:1056200094F82C10012088401149096881431048E2
:105630000160A06CE062E06AC0F10500A06194F82E
:105640002C10012088400A4909680843084908606D
:10565000E16A01EB8101054A02EB8100211DFFF7A0
:1056600007F80126304670BD40000020000F0020E2
:105670005800002070B50646F068C46854B900BFF1
:10568000502080F31188BFF34F8FBFF36F8F00BF9F
:1056900000BFFEE704F11800FEF7ACFF15480068F4
:1056A000A8B9201DFEF7A6FF94F82C100120884011
:1056B00011490968084310490860E16A01EB81015A
:1056C0000E4A02EB8100211DFEF7D2FF04E004F137
:1056D00018010B48FEF7CCFF0A49E06A0968C96A5D
:1056E000884204D9012501200749086000E000250F
:1056F000284670BD7800002058000020000F0020D0
:105700008C0F0020400000206400002070B50024B1
:1057100000263648006850B900BF502080F3118839
:10572000BFF34F8FBFF36F8F00BF00BFFEE7FEF7E1
:10573000ABFF2E480068401E2C49086008460068F0
:1057400000284FD12A48006800284BD024E029487F
:10575000C068C46804F11800FEF74CFF201DFEF776
:1057600049FF94F82C100120884023490968084318
:1057700021490860E16A01EB8101204A02EB8100C6
:10578000211DFEF775FF1E49E06A0968C96A884253
:1057900002D301201B4908601648006808B901209F
:1057A00000E000200028D2D00CB1FEF77DFC1648A6
:1057B000056865B100BFFFF755FE10B10120114922
:1057C00008606D1E002DF6D100200F4908600D48BD
:1057D000006838B1012630070C490860BFF34F8FCD
:1057E000BFF36F8FFEF77AFF304670BD7800002060
:1057F000500000208C0F002058000020000F0020D7
:1058000040000020640000206000002004ED00E063
:105810001CB50024FEF71CF90E48006858B10E486C
:10582000022100234FF48272CDE900100BA10D4834
:10583000FFF7D2FD044654B900BF502080F3118811
:10584000BFF34F8FBFF36F8F00BF00BFFEE720464F
:105850001CBD00008400002088000020546D7220D0
:1058600053766300E94100082DE9FE4304460D46E6
:1058700016461F46DDF828804FF0000954B900BFD6
:10588000502080F31188BFF34F8FBFF36F8F00BF9D
:1058900000BFFEE71448006810B30095019602941B
:1058A000062D15DAFFF7C8FD022808D1002342466D
:1058B00069460D480068FFF745FB814610E000236C
:1058C0001A46694608480068FFF73CFB814607E036
:1058D00000233A46694604480068FFF707FC814602
:1058E0004846BDE8FE8300008400002021F000420D
:1058F000A2F16052B2F5801F01F0004328BFD2F13F
:105900007F6C0BD95FEA001C43EAC20242EB507085
:1059100018BF704728BF20F001007047B2F5801F04
:10592000BCBF184670474FEA410C1CF5001F02D25D
:10593000084600F026B970B500F0CAF800000089EA
:10594000FFF7F6BF4FF00040A0F58000704710F061
:10595000004248BF4042B0FA80F310FA03F10AD087
:10596000C3F11D0303F580634FEA415002EB03527C
:1059700002EBD12170474FF000007047DFF848C1BB
:1059800070B51CEA111E1EBF1CEA13159EEA0C0F0F
:1059900095EA0C0F00F06F8081EA030423EA4C13B0
:1059A0004EEAD47E21EA4C1141F4801143F4801375
:1059B000AE44A1FB024CA0FB0365AEF17F7E36191D
:1059C00055EB0C05A1FB034C4CF10003A0FB021CA2
:1059D00016EB0C06654153F10003094218BF46F06F
:1059E000010613F4007F0BD14FEA03314FEA053073
:1059F000340341EA155140EA16506FF003020AE001
:105A00004FEAC3214FEAC520F40241EA555140EA6A
:105A100056506FF0020202EB2E4201EB025585EA6E
:105A2000CE710AD05FEA440C18BF24F0004450F154
:105A3000000041F1000120EAD47040F2FE7C624592
:105A400000D270BDA84214BF4FF080444FF04044D4
:105A5000002E08BF0024BEF1806FA8BFA1F1C04195
:105A6000BDE8704080F282804FF0000001F1C0413B
:105A700001F0004170479EEA0C0F0CEA131518BFA5
:105A800095EA0C0F06D04FF0000081EA030E0EF0ED
:105A9000004170BD00F01CF88900013E00F007B81D
:105AA00000F009B84FEA430C5FEA5C5C08D081EA79
:105AB000030100F05BB84FEA410C5FEA5C5CF6D191
:105AC0004FF00000014970470000FF070000F87F19
:105AD0000EF1020E2EF0030E5EF8046B364205D472
